:060000000C9477000C9443
:1000060000000C94A4000C9400000C9400000C94C6
:1000160000000C9400000C9400000C9400000C945A
:1000260000000C9400000C9400000C9400000C944A
:1000360000000C9400000C9400000C9400000C943A
:1000460000000C9400000C9400000C940000102793
:10005600E80364000A00010000100001100001001E
:1000660030313233343536373839414263444546C8
:100076004D6F68616D6D61640039363236353833DF
:100086000057656C636F6D6520746F20746865201A
:100096006F6E6C696E65206C616220636C61737350
:1000A60065732064756520746F20436F726F6E618F
:1000B60020646973656173652E0073706565643DC0
:1000C6000045450054696D653D0057656967743D97
:1000D6000054656D703D000080C010009C016600F4
:1000E6000200AC01DE000000F894EE27ECBBF1E064
:1000F600FBBFEBBFE5BF8DE0A2E0BB27ED938A9582
:10010600E9F780E094E0A0E6ED930197E9F7E0EEE9
:10011600F0E085919591009761F0A591B5910590D4
:100126001590BF01F00105900D920197E1F7FB01D3
:10013600F0CFEFE5EDBFE4E0EEBFC0E6D1E00C9412
:1001460035020A921A92FA926A937A938A939A934A
:10015600AA93BA93EA93FA93EFB7EA930E948D05AE
:10016600E0E1E8BB00000E94B90419F020E030E0AD
:100176001CC0E0E2E8BB00000E94B90419F021E0CF
:1001860030E013C0E0E4E8BB00000E94B90419F0B7
:1001960022E030E00AC0E0E8E8BB00000E94B904B3
:1001A60019F023E030E001C0DBCF0E94C20419F44D
:1001B60040E050E011C00E94C70419F441E050E04D
:1001C6000BC00E94CC0419F442E050E005C00E9426
:1001D600D10411F443E050E00E94D6040E94DD04ED
:1001E6000E9494052696E991EFBFF991E991B9919C
:1001F600A9919991899179916991F99019900990AC
:100206001895A0E10E94CA02E0E00E94F204A6E767
:10021600B0E00E94B702E0E0EA93A1E00E947A0211
:10022600AFE7B0E00E94B70208951A930A930E94BE
:10023600D604E0E6F1E0FA93EA93E7E8F0E0FA9311
:10024600EA9380E00E946C04249600E010E00C33F0
:10025600E0E01E077CF4A0E6B1E0A00FB11F0E940B
:10026600A802AAEFB0E00E9464050E94D6040F5FC0
:100276001F4FEDCFF4C00E948D05E0E1E8BB000002
:100286000E94B90419F020E030E01CC0E0E2E8BBAF
:1002960000000E94B90419F021E030E013C0E0E448
:1002A600E8BB00000E94B90419F022E030E00AC061
:1002B600E0E8E8BB00000E94B90419F023E030E052
:1002C60001C0DBCF0E94C20419F440E050E011C027
:1002D6000E94C70419F441E050E00BC00E94CC0410
:1002E60019F442E050E005C00E94D10411F443E045
:1002F60050E00E94D6040E94DD044CC07894E0EFE2
:10030600E8BBFDCF0E948D05E0E1E8BB00000E943E
:10031600B90419F020E030E01CC0E0E2E8BB0000C0
:100326000E94B90419F021E030E013C0E0E4E8BB14
:1003360000000E94B90419F022E030E00AC0E0E8AB
:10034600E8BB00000E94B90419F023E030E001C0C8
:10035600DBCF0E94C20419F440E050E011C00E94B5
:10036600C70419F441E050E00BC00E94CC0419F414
:1003760042E050E005C00E94D10411F443E050E091
:10038600F901ACE9B1E00E947605EA0FFB1FE40F24
:10039600F51FE0810E949405269608951A930A9304
:1003A6000E94D604A0ECB0E00E94F6040E94040568
:1003B600E4E30E940A0531F00E941905A02F0E946D
:1003C600930203C00E941E05EBCF0E9426050E94E1
:1003D600D604AAECB0E00E94F6040E940405E9E304
:1003E6000E940A0531F00E941905A02F0E9493026F
:1003F60003C00E941E05EBCF0E9426050E94D6046C
:10040600A0EDB0E00E94F6040E940405E9E30E9414
:100416000A0531F00E941905A02F0E94930203C01D
:100426000E941E05EBCF0E9426050E94D604A7ED6A
:10043600B0E00E94F604A12FE2E30E9480050E2E92
:10044600E7E30E940A0531F00E941905A02F0E94D9
:10045600930203C00E941E05E8CF0E94260509915B
:10046600199108951FD0CDDEE0DE05DF97DF46DF68
:10047600FFCFEBB7E068EBBFECE0E5BFE0E0E4BF41
:10048600E0E8EABF0895EFEFEABBE0E0EBBBE0EFA0
:10049600E7BBE0E0E8BBE1E0E4BBE0E0E5BBE1BBF5
:1004A600E2BB0895E6DFEFDFA0E171D00895AA93DD
:1004B600EBB3EF70AE2FE881E07FEA2BEBBB8DE06C
:1004C6008A95F1F7DA9A8DE08A95F1F7DA988DE058
:1004D6008A95F1F788C0AA93A881E9DFE881E295B9
:1004E600E883A881E4DF85E88A95F1F77CC0AA93C2
:1004F600E881F0E0E455FE4FE081A981AE0FEBDF25
:100506005980488022960895A2E00E942A05ACE010
:10051600E2DFA1E00E942A05E0E04E2E5E2E08955D
:10052600AA93A881AA3011F0571448F0E0E0EA93A4
:100536004394A42DDCDFA881AA3009F454C0539457
:10054600D89AA881C8DFD8984EC0BA93AA931A93AE
:10055600A981BA81ED91A983BA831E2FE03019F0E3
:10056600A12FDEDFF5CF10C0BA93AA931A93E981C3
:10057600FA813196E983FA833197E4911E2FE030B0
:1005860019F0A12FCDDFF3CF188123960895AA93F2
:10059600EAB3E06FEABBD29AD09AD19ADA98D898A1
:1005A600D9987880E881E058E093AE01E881E0547C
:1005B600E093AF01A4E1B0E00E9464050E9430051B
:1005C6000E9430050E943005A0E271DF88EC90E0C1
:1005D6000197F1F7A8E27FDFA4E07DDFA5E87BDFE6
:1005E600A6E079DF91DF21960895BA93AA931A932C
:1005F6000A93AA81BB8112960E948505309759F10C
:10060600AA81BB8114960E9485058F01309761F0FF
:100616000230E0E01E0798F0F80131978F01AA81B9
:10062600BB811496ED93FC93AA81BB811296ED9142
:10063600FD913196FE93EE933197AC81A083AA810A
:10064600BB810E948505FF232AF0ED91FD9131962D
:10065600FE93EE9306C0AA81BB81EFEFFFEFED9309
:10066600FC931981088125960895BA93AA93269733
:100676000E948D0510E0AC85BD85E0E0F0E0ED93CD
:10068600FC93EA89FB893196EA8BFB8B3197E491DF
:100696002E2FE03009F415C1E12FE03039F4253270
:1006A60011F411E002C00E9438050AC1E130A9F434
:1006B600253219F40E94380502C112E040E000E03C
:1006C6002D3211F401E0FCC02B3211F44BE2F8C0DC
:1006D600203211F440E2F4C002C0E23039F450E0B6
:1006E60013E0203311F40068EBC003C0E33009F0D7
:1006F600E7C0203310F02A3308F007C0AAE05A9F5B
:10070600502DE22FE0535E0FDBC0E22FE33649F4B3
:100716000E943F05E889F989A481AA930E944505AC
:10072600CEC0E33741F40E943F050E944B050E946C
:10073600A0041E2F0AC0E03761F40E943F050E9404
:100746004B050E94AC041E2F086002600F7730E054
:1007560034C0E43611F0E93611F4046002C0E5371E
:1007660031F4E4E5F0E0EE83FF8315E00CC0E835F4
:1007760011F4086003C0E83709F0A1C0EEE5F0E027
:10078600EE83FF8314E002FF14C00E943F050E941F
:100796005505AB85AA233AF4EA85FB850E947205C6
:1007A600EA87FB874DE2403011F01F5F01C00B7FE7
:1007B60004C00E943F050E94550500FD11C0151793
:1007C60078F407FF08C002FF04C00B7F242F1150E6
:1007D60001C020E301C020E20E9438055150EFCF4E
:1007E600312F01FF17C03030A1F003FF06C0EE81A4
:1007F600FF812591EE83FF8305C0AE81BF812D91D8
:10080600AE83BF830E943805503009F051503150F5
:10081600EACF4BC020E3EE81FF810E948905E8877D
:10082600F987EE81FF813296EE83FF83E885F985AD
:10083600AA85BB85AE17BF0750F02F5FA885B9857F
:10084600EA85FB85EA1BFB0BEA87FB87EFCF2A339A
:1008560028F003FF02C0295F01C0295D04FD1AC00C
:10086600213320F4A885B985119709F409C05317D7
:1008760010F000FF01C013C020E207FF0BC020E309
:10088600006102FF07C00B7F4A930E944505503066
:1008960009F051500E943805503009F0515031503E
:1008A600A885B985129708F0B5CF00FF08C050306B
:1008B60031F05150E0E2EA930E944505F8CF10E08E
:1008C600E0CEAC85BD850E9485050E9494056496A0
:1008D6000895FF92F82E26970E948F050E945D05C7
:1008E600309719F4EFEFFFEF23C0DE0116960E9452
:1008F6006E058D010E945D05EE83FF83E0E0E887CB
:10090600E987DE011A960E946E050E948505FA9314
:10091600EA931A930A93E8EFF2E0FA93EA93DE0178
:100926001A96A3DE9F01AE81BF81E0E0EC93F90148
:100936000E9496052A96FF900895BA93AA93A991C4
:10094600B991EE27FF276D91662311F03196FBCF03
:100956000895BA93AA93AA27BB27E991F99105901E
:10096600002011F01196FBCFFD010895E6B3E06F6C
:100976000E2F1127E0EFF0E0E017F1070895E1EF01
:10098600F0E0E017F1070895E2EFF0E0E017F10775
:100996000895E4EFF0E0E017F1070895E8EFF0E0DE
:1009A600E017F10708950E948702E0E0EA93A0E0CD
:1009B6000C947A02F901ACE9B1E00E947605EA0FDF
:1009C600FB1FE40FF51FA0810E949302A8EEB3E07F
:1009D6000E946405E0E0EA93A0E00C947A02EA93B0
:1009E600A0E00C947A020E94B7020E9485011E2F95
:1009F600A8EEB3E00E9464050E9485010E2FE6E092
:100A0600EECFA12FE0E30E9480050E2E08950E94EE
:100A16007B05E0211E2EA02FE0E30E9480050E2E0E
:100A2600E9E30E947B05E021E1210895A12F0E94C0
:100A36009302E7E0D4CFA7ECB0E00E94B702A8EE9D
:100A4600B3E00C946405A8E8B3E10C9464050E9435
:100A56006E02A3E0B0E00C946405A0E30E945A0283
:100A660088EC90E00197F1F708952A93AD85BE854D
:100A7600EF85F88909950895E889F9893497E88B0F
:100A8600F98B0895AD85BE85EF85F889099508959A
:100A9600A889B98914960E948505EE83FF83AE81E5
:100AA600BF810895A889B98914960E948505EA87A9
:100AB600FB870895DE011C960E946E050E9485053F
:100AC6000895109639F080ED97E00197F1F7A89513
:100AD6001197C9F708950024AF0DB01D0895F1953B
:100AE600E195F0400895EE0FFF1FEE0FFF1F0895EA
:100AF600EA17E1E008F4EE270895AE17E1E008F4FE
:100B0600EE270895ED91FC91119708950590F491C3
:100B1600E02D08955A934A933A932A931A930A9387
:100B260008955D814C813B812A8119810881089550
:00000001FF
