:0E0000000C944B000C9400000C9400000C9427
:10000E0000000C9400000C9400000C9400000C9462
:10001E0000000C9400000C9400000C9400000C9452
:10002E0000000C9400000C9400000C944A010C94F7
:10003E0000000C9400000C9400000C9400000C9432
:10004E0000000C9400001027E80364000A00010071
:10005E000010000110000100736E737225643D25BF
:10006E00646D7620004F4352303D2564006E6577F7
:10007E005F736E737225643D25646D76200080C0BB
:10008E000200A5018C000000F894EE27ECBBF1E015
:10009E00FBBFEBBFE5BF8DE0A2E0BB27ED938A95DA
:1000AE00E9F780E094E0A0E6ED930197E9F7EEE83A
:1000BE00F0E085919591009761F0A591B59105902D
:1000CE001590BF01F00105900D920197E1F7FB012C
:1000DE00F0CFEFE5EDBFE4E0EEBFC0E6D1E00C946B
:1000EE0078000BD023D042D029D0E1E0F0E0E093AD
:1000FE009201F0939301FFCFFFCFE0E0EABBEBBBA1
:10010E00E8E0E7BBE0E0E8BBEFEFE4BBE0E0E5BB37
:10011E00E1BBE2BBE1E6E3BFE0E0E2BFEAEAECBF4F
:10012E00E0E0E9BFA0E10E94B3030895E0E8E8B97A
:10013E00E0E4E7B9E3EA0E94FA030895E0E8E8B9DB
:10014E00E0E4E7B9EBEE0E94FA0378940895AA93DF
:10015E00E881E064E7B98BE18A95F1F7369A349B32
:10016E00FECF349AE4B1F5B10C94DF030E948B05F7
:10017E0000E010E00E94000400E010E00830E0E033
:10018E001E070CF50E940004A02FE1DF9F01F8016D
:10019E000E9407040E941904E0E0EA93A1E00E9485
:1001AE007403A02FAF5FD3DF9F01F80131960E9439
:1001BE00070431960E941904A4E6B0E00E94700470
:1001CE000E5F1F4FDBCFAAEFB0E00E9470040E94BB
:1001DE00920524960895BA93AA93E881F9810E9414
:1001EE005505ECBFE0E0EA93A1E00E947403E0E65F
:1001FE00F1E0FA93EA93E3E7F0E0FA93EA93EC8105
:10020E00FD810E945505662777270E94720584E0BE
:10021E000E9420032896A0E6B1E00E94A2030C944F
:10022E007F03BA93AA930E940004E0E6F1E0FA93EA
:10023E00EA93EBE7F0E0FA93EA93EE81FF27662765
:10024E0077270E947205A885B985E5E00E946405AE
:10025E00662777270E94720588E00E9420032C965D
:10026E00A0E6B1E00E94A203E0919201F091930109
:10027E00309719F0A881B981AEDFA4E6B0E00E94F4
:10028E0070040C94B1030A921A92FA926A937A93BA
:10029E008A939A93AA93BA93EA93FA93EFB7EA934F
:1002AE000E942E04AE0FBF1F0E946A05BF01DF0120
:1002BE00E4B1F5B10E948205EA1BFB0BFF93EF93AD
:1002CE00FB01662777270E94A904ADECBCEC8CE4F9
:1002DE009DE30E94D704AF91BF91882799270E9472
:1002EE0079050E94250509F008F407C0E091A401E4
:1002FE00EA93E4B1F5B1DF0194DF0E942E04AE0F54
:10030E00BF1FE4B1F5B1ED93FC93A091A401AF5FD3
:10031E00A093A401A83018F0E0E0E093A401E091CE
:10032E00A401E05CE7B98BE18A95F1F7369AE99181
:10033E00EFBFF991E991B991A9919991899179912B
:10034E006991F990199009901895BA93AA931A93F6
:10035E000A93AA81BB8112960E946A05309759F1C1
:10036E00AA81BB8114960E946A058F01309761F0B5
:10037E000230E0E01E0798F0F80131978F01AA8154
:10038E00BB811496ED93FC93AA81BB811296ED91DD
:10039E00FD913196FE93EE933197AC81A083AA81A5
:1003AE00BB810E946A05FF232AF0ED91FD913196E3
:1003BE00FE93EE9306C0AA81BB81EFEFFFEFED93A4
:1003CE00FC931981088125960895BA93AA932697CE
:1003DE000E94890510E0AC85BD85E0E0F0E0ED936C
:1003EE00FC93EA89FB893196EA8BFB8B3197E4917A
:1003FE002E2FE03009F415C1E12FE03039F425320B
:10040E0011F411E002C00E9436040AC1E130A9F4D1
:10041E00253219F40E94360402C112E040E000E0D9
:10042E002D3211F401E0FCC02B3211F44BE2F8C076
:10043E00203211F440E2F4C002C0E23039F450E050
:10044E0013E0203311F40068EBC003C0E33009F071
:10045E00E7C0203310F02A3308F007C0AAE05A9FF5
:10046E00502DE22FE0535E0FDBC0E22FE33649F44E
:10047E000E943D04E889F989A481AA930E9443044D
:10048E00CEC0E33741F40E943D040E9449040E940D
:10049E00E1031E2F0AC0E03761F40E943D040E9462
:1004AE0049040E94ED031E2F086002600F7730E0B2
:1004BE0034C0E43611F0E93611F4046002C0E537B9
:1004CE0031F4E4E5F0E0EE83FF8315E00CC0E8358F
:1004DE0011F4086003C0E83709F0A1C0EEE5F0E0C2
:1004EE00EE83FF8314E002FF14C00E943D040E94BD
:1004FE005304AB85AA233AF4EA85FB850E9449058D
:10050E00EA87FB874DE2403011F01F5F01C00B7F81
:10051E0004C00E943D040E94530400FD11C0151733
:10052E0078F407FF08C002FF04C00B7F242F115080
:10053E0001C020E301C020E20E9436045150EFCFEB
:10054E00312F01FF17C03030A1F003FF06C0EE813E
:10055E00FF812591EE83FF8305C0AE81BF812D9172
:10056E00AE83BF830E943604503009F05150315093
:10057E00EACF4BC020E3EE81FF810E946E05E88733
:10058E00F987EE81FF813296EE83FF83E885F98548
:10059E00AA85BB85AE17BF0750F02F5FA885B9851A
:1005AE00EA85FB85EA1BFB0BEA87FB87EFCF2A3335
:1005BE0028F003FF02C0295F01C0295D04FD1AC0A7
:1005CE00213320F4A885B985119709F409C0531772
:1005DE0010F000FF01C013C020E207FF0BC020E3A4
:1005EE00006102FF07C00B7F4A930E944304503004
:1005FE0009F051500E943604503009F051503150DC
:10060E00A885B985129708F0B5CF00FF08C0503005
:10061E0031F05150E0E2EA930E944304F8CF10E02B
:10062E00E0CEAC85BD850E946A050E949005649659
:10063E000895FF92F82E26970E948B050E945B0468
:10064E00309719F4EFEFFFEF23C0DE0116960E94EC
:10065E0045058D010E945B04EE83FF83E0E0E88791
:10066E00E987DE011A960E9445050E946A05FA93F3
:10067E00EA931A930A93ECEAF1E0FA93EA93DE0115
:10068E001A96A3DE9F01AE81BF81E0E0EC93F901E3
:10069E000E9492052A96FF900895AA93E5B3EF70F3
:1006AE00AE2FE881E07FEA2BE5BB8DE08A95F1F76E
:1006BE00AA9A8DE08A95F1F7AA988DE08A95F1F7BE
:1006CE0077C0AA93A881E9DFE881E295E883A88143
:1006DE00E4DF85E88A95F1F76BC0AA93E881F0E034
:1006EE00EB55FE4FE081A981AE0FEBDF59804880BC
:1006FE0022960895A2E00E946204ACE0E2DFA1E03F
:10070E000E946204E0E04E2E5E2E0895AA93A88108
:10071E00AA3011F0571448F0E0E0EA934394A42D68
:10072E00DCDFA881AA3009F443C05394A89AA881AB
:10073E00C8DFA8983DC0BA93AA931A93A981BA812B
:10074E00ED91A983BA831E2FE03019F0A12FDEDFC1
:10075E00F5CF188123960895AA93E4B3E06FE4BB16
:10076E00A29AA09AA19AAA98A898A9987880E881A6
:10077E00E058E093A701E881E054E093A801A4E1DA
:10078E00B0E00E9470040E9468040E9468040E94F7
:10079E006804A0E282DF88EC90E00197F1F7A8E20E
:1007AE0090DFA4E08EDFA5E88CDFA6E08ADFA2DF73
:1007BE0021960895BA93AA93A991B991EE27FF278E
:1007CE006D91662311F03196FBCF0895BA93AA93DB
:1007DE00AA27BB27E991F9910590002011F01196F7
:1007EE00FBCFFD010895E6B9E0E0E0BFEDB9E6BF4D
:1007FE0008950E948103E0E0EA93A0E00C94740354
:10080E00A4E9B1E0EE0FFF1FEA0FFB1F2083318337
:10081E00E0E6F1E0FA93EA93E6E6F0E0FA93EA9383
:10082E00F80108950E945A050E947205A5E0A29F44
:10083E00F001A39FF00D662777270E94720588E0CE
:10084E000E9420032C96A0E6B1E00C94A203E09146
:10085E00A401A4E9B1E0F0E0EE0FFF1F08952A9382
:10086E00AD85BE85EF85F88909950895E889F989E2
:10087E003497E88BF98B0895AD85BE85EF85F889A1
:10088E0009950895A889B98914960E946A05EE8380
:10089E00FF83AE81BF810895A889B98914960E94FD
:1008AE006A05EA87FB870895DE011C960E944505BE
:1008BE000E946A0508950E946803A3E0B0E00C94BC
:1008CE007004A0E30E94540388EC90E00197F1F7C6
:1008DE000895109639F080ED97E00197F1F7A895FD
:1008EE001197C9F70895552342F4503811F4E0FFDB
:1008FE0004C03196691F791F6BF050E8572711F429
:10090E005F933CC05F3F31F0660F000C57956795C3
:10091E00752F08955F9300200AF03CC035C050E853
:10092E00192E1522880F991F9527550F879550E878
:10093E00072E0522660F771F7527550F67950895A9
:10094E00689401C0E894309760407040B1F0002484
:10095E0026F0772312F4009499D0172E7EE1112001
:10096E0032F07A95EE0FFF1F661F111CF9CFEF2F95
:10097E00F62F612D5F93C1DF5F910895EE27FF275C
:10098E00662777275F910895EFEFFFEF6FE77FEF11
:10099E005F910895EFEFFFEF6FE77FE75F910895A7
:1009AE005F93BDDF703851F3903841F30124089402
:1009BE00791F23F41CF300203AF3ECCF0F921F9310
:1009CE002F933F934F93112722279927689FA001BA
:1009DE008F9F302D410D591F6B9F300D411D591F9B
:1009EE008E9F27D0BF9F25D06A9F23D0BE9F1DD03C
:1009FE00AF9F1BD0AE9F110D291F391F491F591FC5
:100A0E00E32FF42F652F522F4F913F912F911F916E
:100A1E000F9066232AF0550FEE1FFF1F661F02C0B0
:100A2E0073954BF260DF5F910895100D211D391FF4
:100A3E0002C0200D311D491F591F089599239AF0A8
:100A4E00772342F0971748F029F4AE17BF078607B1
:100A5E0020F031F09894889408959894089408950D
:100A6E001894889408957723C2F7971798F3A9F7E7
:100A7E00EA17FB07680788F399F3ECCF0024AF0D54
:100A8E00B01D0895F195E195F0400895F0956095AB
:100A9E007095E195FF4F6F4F7F4F0895F695E7954F
:100AAE00F695E79508956F2F660F660B762F0895CE
:100ABE008B2F880F880B982F08956E2F6A9FF00149
:100ACE006B9FF00D0895ED91FC911197089505908F
:100ADE00F491E02D08957A936A93FA93EA93089528
:100AEE00689401C0E89401D02EDF182E862F612D58
:100AFE00192E972F712D1B2EBF2FF12D1A2EAE2FC3
:100B0E00E12D08955A934A933A932A931A930A938E
:100B1E0008955D814C813B812A8119810881089558
:00000001FF
