:100000000C9438000C9400000C9400000C94000038
:100010000C9400000C9400000C9400000C94000060
:100020000C9400000C9400000C9400000C94000050
:100030000C9400000C9400000C9400000C94000040
:100040000C9400000C9400000C9400000C94000030
:100050000C9400003F0006005B004F0066006D003E
:100060007D0007007F006F00130060015400000056
:10007000F894EE27ECBBF1E0FBBFEBBFE5BF8DE0F2
:10008000A2E0BB27ED938A95E9F780E094E0A0E633
:10009000ED930197E9F7E8E6F0E0859195910097F7
:1000A00061F0A591B59105901590BF01F001059003
:1000B0000D920197E1F7FB01F0CFEFE5EDBFE4E032
:1000C000EEBFC0E6D1E00C946500E0E0EABBEFEFE4
:1000D000EBBBE7BBE0E0E8BBEFEFE4BBE0E0E5BB98
:1000E000EFE0E1BBE0EFE2BBAAE9B9E989E99EE311
:1000F00001D0FFCF0E94A7022C970E94C20220E0ED
:1001000030E041E050E02E833F8309B31127002403
:1001100000160106A4F4D8016FD0E88BF98BFA0120
:10012000A889B9890E946E022E0F3F1FD801EAE00C
:10013000F0E00E9486028F01440F551FE8CFF901BD
:10014000AAE0B0E00E946E02EE83FF83AE81BF8121
:100150000E94BE020CF04CC04FD0EE87FF87AE81EC
:10016000BF81EAE0F0E04DD0EC87FD87AE81BF8132
:10017000E4E6F0E046D0EA87FB87AE81BF81E8EE97
:10018000F3E03FD0E887F987E7E0E2BBEE85FF8543
:100190003CD043D0EBE0E2BBEC85FD8536D0E06897
:1001A0003CD0EDE0E2BBEA85FB852FD036D0EEE017
:1001B000E2BBE885F98529D030D0AA89BB898C8932
:1001C0009D89E0E0F0E060E271E40E940702AE8108
:1001D000BF810E9461020E94AE020E94B1020E9491
:1001E000B501DE0116960E944B01ED93FC93AECF54
:1001F0000E94C90266960895EAE0F0E00E948B0230
:1002000008950E948602DF01F7CFA0E6B1E0EE0F6D
:10021000FF1FAE0FBF1FEC910895E5BBA4E6B0E051
:100220000C941201109639F080ED97E00197F1F7E8
:10023000A8951197C9F70895552342F4503811F441
:10024000E0FF04C03196691F791F6BF050E8572713
:1002500011F45F93CAC05F3F31F0660F000C5795F1
:100260006795752F08955F9300200AF0CAC0C3C038
:1002700050E8192E1522880F991F9527550F87953D
:1002800050E8072E0522660F771F7527550F6795D3
:100290000895689401C0E8945F93F2DF703818F015
:1002A0007F3F08F4A2C056E1571BAAF4519558307D
:1002B0000EF4593030F0EFEFFFEF6FEF7FE777F993
:1002C0001AC077275523B9F0EE0FFF1F661F771F5F
:1002D0005A95D1F710C07727583028F0EF2FF62F16
:1002E000672F5850F9CF552331F076956795F795DC
:1002F000E7955A95D1F700200AF4DBD05F91089575
:10030000689401C0E894309760407040B1F00024D8
:1003100026F0772312F40094CCD0172E7EE1112022
:1003200032F07A95EE0FFF1F661F111CF9CFEF2FE9
:10033000F62F612D5F938ADF5F9108954F93AF0190
:10034000FD01DA01AB01BC01CA01402D012C142EC4
:100350004F910895EA0FFB1F681F0895E095F095EF
:100360006095EF5FFF4F6F4F08955F9381DF903887
:1003700049F150E81526703821F1572F591B2BF100
:1003800012F4DCDFFACF583118F0AA27BB278827F0
:10039000583028F0AB2FB82F88275850F9CF552365
:1003A00029F08695B795A7955A95D9F7502D5125DF
:1003B00072F0D0DF38F46795F795E795739513F4ED
:1003C00020C0BCDF43DF5F910895D8F7FBCFEA1B65
:1003D000FB0B680B51F010F40094C0DF662392F31E
:1003E000EE0FFF1F661F7A95CBF7EE27FF276627D4
:1003F00077275F910895EFEFFFEF6FE77FEF5F9152
:100400000895EFEFFFEF6FE77FE75F9108955F9348
:100410002FDF703851F3903841F301240894791F8D
:1004200023F41CF300203AF3ECCF0F921F932F9389
:100430003F934F93112722279927689FA0018F9FF1
:10044000302D410D591F6B9F300D411D591F8E9F3F
:1004500027D0BF9F25D06A9F23D0BE9F1DD0AF9FBE
:100460001BD0AE9F110D291F391F491F591FE32FA4
:10047000F42F652F522F4F913F912F911F910F9085
:1004800066232AF0550FEE1FFF1F661F02C07395EB
:100490004BF2D2DE5F910895100D211D391F02C06D
:1004A000200D311D491F591F0895F195E195F04028
:1004B0000895F09560957095E195FF4F6F4F7F4FD0
:1004C00008958B2F880F880B982F0895FA9FF02D91
:1004D000EB9FF00DEA9FE02DF10D08952AD0F6DF95
:1004E0000EF4E3DF08950024112490E1AA0FBB1F4E
:1004F000001C111C0E1A1F0A18F40E0E1F1E01C03C
:10050000A1609A9599F7FD01D001089512D0EBDF13
:100510000EF4CBDF0895E894B7FF04C0A095B09522
:1005200011966894F7FDC1DFDEDFFD010EF4BDDF3B
:100530000895E894F7FF02C0B8DF6894B7FF06C0DB
:10054000A095B095119600F8039400FA08959A9337
:100550008A93BA93AA930895689401C0E89401D04D
:10056000D2DE182E862F612D192E972F712D1B2E5E
:10057000BF2FF12D1A2EAE2FE12D089500240A165B
:100580000B0608955A934A933A932A931A930A931F
:1005900008955D814C813B812A81198108810895EC
:00000001FF
