:080000000C943D030C94000078
:100008000C9400000C9400000C9400000C94000068
:100018000C9400000C9400000C9400000C94000058
:100028000C9400000C9400000C9400000C94000048
:100038000C9400000C9400000C9400000C94000038
:100048000C9400000C9400000C940000050720603C
:10005800000000000000005F000000070007001417
:100068007F147F14242A7F2A1223130864623649D6
:100078005522500005030000001C224100004122C7
:100088001C00082A1C2A0808083E080800503000EE
:100098000008080808080030300000201008040292
:1000A8003E5149453E00427F400042615149462148
:1000B80041454B311814127F1027454545393C4AB4
:1000C8004949300171090503364949493606494904
:1000D800291E00363600000056360000000814229B
:1000E8004114141414144122140800020151090681
:1000F800324979413E7E1111117E7F494949363E88
:10010800414141227F4141221C7F494949417F09A0
:100118000901013E414151327F0808087F00417FB3
:1001280041002040413F017F081422417F40404068
:10013800407F0204027F7F0408107F3E4141413E18
:100148007F090909063E4151215E7F091929464662
:100158004949493101017F01013F4040403F1F208B
:1001680040201F7F2018207F63140814630304783D
:100178000403615149454300007F414102040810CE
:100188002041417F000004020102044040404040F9
:10019800000102040020545454787F4844443838FD
:1001A80044444420384444487F3854545418087E02
:1001B800090102081454543C7F0804047800447D63
:1001C80040002040443D00007F10284400417F400B
:1001D800007C041804787C080404783844444438C3
:1001E8007C14141408081414187C7C0804040848A7
:1001F80054545420043F4440203C4040207C1C2060
:1002080040201C3C4030403C44281028440C5050AE
:10021800503C4464544C44000836410000007F00C0
:1002280000004136080002010204027F4141417F7B
:100238000000FC00F900F300F900FC000000FF00DA
:10024800FF000000F700F700F700F7000000FF00CC
:1002580080004000000000000000000000000000D6
:100268000000000000000000000000000000000086
:100278000000000000000000000000000000000076
:100288000000000000000000000000000000000066
:100298000000000000000000000000000000000056
:1002A8000000000000000000000000000000000046
:1002B8000000000000000000000000000000000036
:1002C8000000000000000000000000000000000026
:1002D8000000000000000000000000000000000016
:1002E8000000000000000000000000000000000006
:1002F80000000000000000000000000000000000F6
:1003080000000000000000000000000000000000E5
:1003180000000000000000000000000000000000D5
:1003280000000000000000000000000000000000C5
:1003380000000000000000000000000000000000B5
:1003480000000000000000000000000000000000A5
:100358000000000000000000000000000000000095
:100368000000000000000000000000000000000085
:100378000000000000000000000000000000000075
:10038800000080F8F80000000000000000000000F5
:100398000000000000000000000000000000000055
:1003A8000000000000808080C040404040C0808045
:1003B80080000000000000000000000000000000B5
:1003C8000000000000000000000000000000000025
:1003D8000000000000000000000000000000000015
:1003E8000000000000000000000000000000000005
:1003F8000000000000000000808080C040602030C5
:10040800180C0700030E1810302020202020202070
:100418002020202020301E0A0E1E1E1E1010101034
:1004280010101010101111101010101010101011C1
:1004380011090B0E0E060C08181010101010181CBD
:100448001E1E0E000000000000000000000000005A
:100458000000000000000000000000000000000094
:100468000000000000000000000000000000000084
:10047800000000020301010100000000000000006C
:100488000000000000000000000000000000000064
:100498000000000000000000000000000000000054
:1004A8000000000000000000000000000000000044
:1004B8000000000000000000000000000000000034
:1004C8000000000000000000000000000000000024
:1004D8000000000000000000000000000000000014
:1004E8000000000000000000000000000000000004
:1004F80000000000000000000000000000000000F4
:10050800000000000060C0000000000000000000C3
:1005180000000000000000000000000000000000D3
:100528000200808000000000000000000000800041
:10053800000080000000E0E00000000000006030E3
:100548001018080888D070000000000000000000A3
:100558000000000000000000000000000000000093
:1005680000000000000000000000000080808040C3
:100578004020100C060000000000183828F8202041
:1005880020201010100807000000000000000000E4
:100598000000000000001F30E080000000008080A4
:1005A800B8EF01070C181010180E0C18180C070CCF
:1005B8000C070103060407010306040404040404E9
:1005C8000602030101000000000000000000000016
:1005D8000000000000000000000000000000000013
:1005E80000000000000000000001010101000000FF
:1005F80000000000000202020202020203010000E1
:1006080000000406020203010900000000000000C7
:1006180000000000000000000001010101010100CC
:1006280000000000000000020202020202000000B6
:1006380000000000000000000000000000000000B2
:1006480000000000000000000000000000000000A2
:1006580000000000000103070F1F3F7FFF0001009B
:100668002D4E414E00494E460000010080016606AD
:100678000000F894EE27ECBBF1E0FBBFEBBFE5BF51
:100688008DE0A2E0BB27ED938A95E9F780E094E03E
:10069800A0E6ED930197E9F7E2E7F6E085919591F9
:1006A800009761F0A591B59105901590BF01F001F3
:1006B80005900D920197E1F7FB01F0CFEFE5EDBF53
:1006C800E4E0EEBFC0E6D1E00C946A0305E010E078
:1006D80058D076D0002E012A21F006D001501040C3
:1006E800F9CFCCD0FFCFFFCF0E94801000E010E000
:1006F8000031E0E01E070CF042C020E030E0283076
:10070800E0E03E07C4F4979AE22F0E94C50C2CF053
:10071800F801E20FF31F709703C0F801E20FF31F0F
:10072800A8E3B2E00E94CE0CA3E0B0E00E941F0E46
:100738002F5F3F4FE4CF28E030E02031E0E03E0774
:10074800DCF4E2B3E974E2BBE22FE8500E94C50C86
:100758002CF0F801E20FF31F709703C0F801E20FC5
:10076800F31FA8E3B2E00E94CE0CA3E0B0E00E9421
:100778001F0E2F5F3F4FE1CF0F5F1F4FB9CF0C9474
:1007880053062697EFEFEABBE0E0EBBBEFEFE7BBE2
:10079800E0E0E8BBEFEFE4BBE0E0E5BBEFEFE1BB97
:1007A800E0E0E2BBE4E5F0E0E883F983E0E0EA8337
:1007B800EB83EC83ED83DE010E94CC050C94CE061E
:1007C800E0E0EA93EA93E8E5F2E0FA93EA93A0E03E
:1007D8000E940D09A8EBBBE00E941F0E0E94310683
:1007E8000895BA93AA930E9431060E94D50CA9E1F4
:1007F8000E943A0C0E94D50CEA81FB810E94D90C18
:100808000E9440050E94E40CEA93EB81FC810E945F
:10081800D90C0E94B4040E94E40CAE2F0E94630914
:100828000E94D50CEC81FD810E94D90C0E944005E4
:100838000E94F30CEA93ED81FE810E94D90C0E947C
:10084800B4040E94F30CAE2F0E9463090E94D50CD9
:10085800EE81FF810E94020D0E9440050E940D0D4D
:10086800EA93EF81F8850E94020D0E94B4040E9469
:100878000D0DAE2F0E9463090C94CE060E947E10C7
:100888000EEF1FEF21EF3FEF4BED5FEF4150504070
:10089800E4ECFFEFE417F50791F42150304040E015
:1008A80050E0E217F30759F40150104020E030E01F
:1008B800E8EEFFEFE017F10711F400E010E01A93FB
:1008C8000A933A932A93DA018CDFA8EEB3E00E94E8
:1008D8001F0EDCCF0E944B107B816A81F981E88171
:1008E80077FB770F67FD7160972F9E5781F078F03F
:1008F800983190F4AA27BB27882708948795B7953D
:10090800A7959A95D1F7EA23FB23682305C0E894B5
:100918007727EE27FF2766276F77769508F46068B4
:1009280077F9A991B99189919991EA17FB07680715
:10093800790797FB08950E941C0D0E946E040E947F
:10094800461021F40E943C100C945506DEF70E94D4
:100958003C10A0E0B0E080E89FE30E94C80EA1C16F
:100968000E944B1024971A9310E00E94210DE3E88F
:10097800F9EF62E27EE30E941F0F0E94260DDBDF83
:100988000E94210D0E9450100E94C80E0E94260D40
:10099800E0E0F0E060E07FE30E94B20F09F008F4C5
:1009A80009C00E942B0DA0E0B0E080E09FE30E9408
:1009B800300D11E00E94210DE0E0F0E060E87EE3F8
:1009C8000E94B20F09F008F408C00E94210DE0E06F
:1009D800F0E060E07FE30E94300D103041F00E94AB
:1009E8002B0D0E94290EED83FE836F8378870E946A
:1009F8002B0D0E94210D0E941F0FE983FA836B8340
:100A08007C83A1EBB4EC86E292E40E941F0FDF0125
:100A1800CB01EDE1F5EE6DE272E40E9450100E9408
:100A2800C80E0E94370DACE4B3E584E091E40E945F
:100A3800CF0E0E94210D0E941F0F7F936F93FF938B
:100A4800EF93E981FA816B817C81A1E1BDEE8EEDA6
:100A58009FE30E94CF0E0E94370DAEE5BBE788EA00
:100A68009FE30E94CF0EAF91BF918F919F910E94FB
:100A78006D0F18810C9439090E941C0DEBEDFFE0F5
:100A880069EC7FE30E94C80EDF01CB0169DF09C171
:100A98000000909A000008959098949A959A089565
:100AA8001A93F6DF13B39098E12F19910895AA933A
:100AB8001A93E0E0E4BB919A9298A981E2E0EA1BDC
:100AC8001E2F10FF02C0949A01C0949811FF02C013
:100AD800959A01C09598E4DFE078E9F718811FC17D
:100AE800AA93A981E4DF0E943E0D19C1E0917E011D
:100AF800EA93E0917D01EF73E064AE2FF1DFE091BE
:100B08007E01EA93E0917F01E86BAE2FE9DF08955B
:100B1800AA93E981E0937D01E295EF70E695E69569
:100B2800E0937E01E881E0937F01E0DFF8C0A091C7
:100B38007D01AF5FA0937D01A03818F0E0E0E0935D
:100B48007D01E0917D01EF7331F4E0917D01EA933D
:100B5800A0917F01DDDF0895AA93A0917E01A7DF10
:100B6800929A0E943E0D21960895A0917E019FDFE2
:100B7800E0E0E4BB919A929A93DF0895AA93E98101
:100B8800EA93E9810E94470DF0DFB0DFEEDFC7C0CE
:100B9800BA93AA931A93889A899A8A9A8B9A939A5B
:100BA8008C9A8D9A79DF9398A4E6B0E00E941F0E84
:100BB800939A10E0123040F41A93AFE391DF1A933E
:100BC8001395A0EC8DDFF6CFE1E0E0936001E0E063
:100BD800E0936101E981FA813097A9F0A981BA818E
:100BE8000E943810E0936401F093650112960E9408
:100BF8003810E0937901F0937A01A981BA811496AB
:100C08000E9438100AC0E0E0F0E0E0936401F0933D
:100C18006501E0937901F0937A01E0937B01F09309
:100C28007C01E1E0E0936601E0936701E0936801ED
:100C3800EFEFE0936901E1E0E0937001E1E7F1E0B3
:100C4800FA93EA93EFEFEA93A8E0B0E00E94440C2D
:100C580004D0E1E01881239608950E94801000E0F6
:100C680030E0E0916101E03009F00FEF383078F4BE
:100C7800E0E0EA93A32F3F5F4BDF10E0A12F1F5F57
:100C8800A03820F4A02F0E944D0DF8CFEFCFE0E060
:100C9800EA93A0E03DDFE0E0EA93A0E003D30E94FE
:100CA800871024960895AA931A930A93AC81A038C2
:100CB80018F4AB81A03408F016C0EC81EA93AC813B
:100CC8005DDF1E2F13DFEB81E770A1E00E94DE0FCE
:100CD8000E2FEA81E03011F0102B03C0E02FE095D1
:100CE8001E23A12F39DF1981088125960895AA931B
:100CF800A981A03818F4A881A03410F0E0E00FC052
:100D0800E981EA93A9813ADF1E2EE881E770A1E024
:100D18000E94DE0FE12111F0E1E001C0E0E022963F
:100D28000895AA931A93ED81EA93AD8127DF1E2FC8
:100D3800DDDEE981E73011F0E83039F4EB81EA9340
:100D4800AA810E945F0CEB8308C0E33021F4EB8199
:100D5800E095EB8302C0E03021F4EA81E0951E23A0
:100D680002C0E23029F4EA81AB81EA231E2B0EC0CF
:100D7800E13029F4EA81AB81EA231E2707C0E43079
:100D880029F4EA81E095AB81EA2B1E23A12F0E946A
:100D98004D0D188126960895AA9323970E947E10D8
:100DA800A889A03848F4AF85A03430F4AE85A030C7
:100DB80019F0AD85A03009F4C8C1EE85E887A88987
:100DC800BB27EE85F0E0AE0FBF1FA138E0E0BE07FD
:100DD80020F0A889E0E8EA1BEE872D85AF85BB27C0
:100DE800ED85F0E0AE0FBF1FA134E0E0BE0720F0B4
:100DF800AF85E0E4EA1BED87A985A63009F05BC062
:100E0800EC85E13009F4A1C1E33039F4E0917B01CC
:100E1800F0917C01309709F498C10885ED85E69535
:100E2800E695E6953E2FE22FE77019F4AD852A176F
:100E3800E9F0A02FBB27E32FF0E00E94FD0FAA8561
:100E4800BB850E94510D269526952695532F5F93B5
:100E58005F5FE22FAF91EA1748F0102FE12F115092
:100E6800E03019F00E94560DF9CFF1CFAE850A1780
:100E780011F1EE85AA85BB85F0E00E94510DED8544
:100E8800E77009F03F5F20E02F932F5FE32FAF91CA
:100E9800AE1788F41E851F931F5FE02FAF91AE1722
:100EA80018F40E94560DF7CFEE85AE81BF81F0E0B1
:100EB8000E94510DE9CFEF85E7703E2FED85E030B8
:100EC80009F443C1EA85FB85EE83FF8310E00889B6
:100ED800303009F065C0AD85A83008F45CC0E985FC
:100EE800E03011F0E33009F402C0E73009F402C041
:100EF800E83009F402C0E63009F402C0E93009F428
:100F080002C0EA3021F40A93E8890E94470D1F9332
:100F18001F5FEE85AF91AE17B8F5A985A63061F4CD
:100F280024DEE4DD0E94630DFA93EA931EDEAE2F01
:100F38000E94A60CFCDD27C0E985E93011F450E0D9
:100F48000EC0EA3011F45FEF0AC00E94630D0E94E0
:100F58006C0D5E2FE985E73011F0E83021F40E942E
:100F6800720D5E2F06C0E33011F4509502C0E030D8
:100F780021F4A52F0E944D0D06C00E94760DEFEFBB
:100F8800EA93AD85CEDEC3CFEF85E85FEF87ED85C9
:100F9800E850ED87D1C05D8520E0E0E0ED877AC0BC
:100FA800E32FAD85AE0FA93020F42D85E0E0ED8765
:100FB80003C0E8E0E31B2E2F3A93A22F0E94540CA3
:100FC8004E2FE985E630F1F41F931F5FEE85AF9150
:100FD800AE17B8F40E947C0DAE2FE32F0E94E60FE7
:100FE8000E94830DE32FA42F0E94E60FE095E121D4
:100FF8005E2B0E94630DFA93EA93A52F0E94A60C1C
:10100800E3CF2CC0E93011F450E003C0EA30A9F472
:101018005FEF0E94720DAE2FE32F0E94DE0F5E2F4E
:101028001F931F5FEE85AF91AE1730F40E94760DC7
:101038004A93A0E076DEF4CF11C01F931F5FEE85C0
:10104800AF91AE1758F40E948E0DAE2FE32F0E9479
:10105800DE0FEA934A93AD8564DEEFCFED85E0308D
:1010680009F473C0AD85A83028F4ED85E21B5E2F26
:10107800E0E003C0532FED85E850ED8710E0EF85E1
:10108800E85FEF87E8E0E31B2E2F0889EA85FB85F8
:10109800EE83FF83E52FF0E0E45AF94F4491E985A8
:1010A800E630F1F41F931F5FEE85AF91AE17B8F4E9
:1010B8000E947C0DAE2FE22F0E94DE0F0E94830D4E
:1010C800E22FA42F0E94DE0FE095E1215E2B0E9403
:1010D800630DFA93EA93A52F0E94A60CE3CF2CC0C8
:1010E800E93011F450E003C0EA30A9F45FEF0E9440
:1010F800720DAE2FE22F0E94E60F5E2F1F931F5F27
:10110800EE85AF91AE1730F40E94760D4A93A0E0B9
:1011180008DEF4CF11C01F931F5FEE85AF91AE17A5
:1011280058F40E948E0DAE2FE22F0E94E60FEA932C
:101138004A93AD85F6DDEFCFE885AA85BB85F0E05B
:10114800EA0FFB1FEA87FB87B9CE0E9485106196DC
:1011580008950E949B0D24F0E0E0F0E00C945D0CF3
:10116800A881B981A038E0E0BE0724F0EFE7F0E0FD
:101178000C945D0CE881F9810C945D0C0E949B0D28
:1011880024F0E0E0F0E00C945D0CA881B981A03473
:10119800E0E0BE0724F0EFE3F0E00C945D0CE8819A
:1011A800F9810C945D0CAA93E981EA93E981EA93A9
:1011B800A091600178DD0C945D0CAA931A93AA8122
:1011C800A03818F4A981A03438F0E0E0F0E060E03D
:1011D80070E018810C94A40CE981E7701E2FE98156
:1011E800E695E695E695E983103011F0EF5FE9831F
:1011F800AA81BB2788279927E981FF2766277727B0
:101208000E940510EC5FFF4F6F4F7F4F18810C94C1
:10121800A40CAA930E948010AC81A53000F5ED8142
:10122800FE8105910E94A20D15910E94A20D2591A3
:101238000E94A20D3591ED83FE83E885EA93E88547
:10124800EA930A932A93E1E0EA93EA85FB85FA9305
:10125800EA93AB85A1DD0A93A22FAFDF04C0E0E0DB
:10126800F0E060E070E00E94871029960895AA9344
:10127800EA81EA93EA81EA93E0916901AA81EA2383
:1012880019F0E091600102C0E0916101AE2F0BDD21
:10129800E881EE0FE883E03011F4E1E0E883E881CB
:1012A8000C94A40CAA93A981BB2753DFE093620195
:1012B800A881BB2763DFE09363010C945D0CAA93BC
:1012C8002B970E947E10AC89BB2743DFEC8BAA8941
:1012D800BB273FDFEA8BAB89BB2750DFEB8BA989A4
:1012E800BB274CDFE98BEA89E0936201E989E09347
:1012F8006301E1E0E887E989AB89EA1771F51C89A0
:10130800AA891A1731F41A93EC89EA93A1E0AFDF9E
:10131800C8C0AA891A1730F4EA89E11B0E2F41E0E8
:1013280050E006C0AA89E12FEA1B0E2F4FEF5FEFAE
:101338003B89E0E0EE830E94A50D38F41A933A93B6
:101348003395AA8594DFEF83F6CFEF81E887140FF2
:10135800E02F0150E03061F7A4C0EA89AC89EA17B0
:1013680039F53B89A9893A1730F4E989E31B2E2F0F
:10137800E1E0F0E006C0A989E32FEA1B2E2FEFEF8A
:10138800FFEFED87FE871C89E0E0EE830E94A50D44
:1013980030F41A9313950E94AD0DEF83F7CFEF81C8
:1013A800E887ED853E0FE22F2150E03061F779C0E4
:1013B800E0E0EE830E94A50D08F073C01C893B890C
:1013C800E1E02E2F0E2FAA89BB27EC89F0E0AE1B97
:1013D800BF0BAD0155232AF40FEFFA010E94D20F7B
:1013E800AF01FA01EE0FFF1FEF87F88BA989BB2722
:1013F800EB89F0E0AE1BBF0BAD87BE87AE85AA2395
:101408003AF42FEFED85FE850E94D20FED87FE8717
:10141800ED85FE85EE0FFF1FEB87FC871A933A9345
:10142800A1E025DFE887E0E0E987EA87AD85BE85AA
:101438004A175B07BCF0100FEB85FC850E94B10DC5
:10144800A985BA854A175B072CF4320FAF85B8898E
:101458000E94B80D1A930E94AD0DE887EA89E1173A
:1014680051F718C0320FEF85F8890E94B10DED854C
:10147800FE85A985BA85EA17FB072CF4100FAB8502
:10148800BC850E94B80D1A930E94AD0DE887E989C2
:10149800E31741F7EB89EF5FEB8BE989EF5FE98BA6
:1014A80089CF0E94851065960895BA93AA932397C9
:1014B8000E947E10ED85E887E0916801EF83E09156
:1014C8006001EE83AA89BB27EF850E94BF0DE889DA
:1014D8000E94C60DE8890E94CD0D71F0E885E0787C
:1014E800F1F4AD85BE85EAE5F0E00E94D50D1CF06B
:1014F8000E94DE0D0CF413C0332312F00E94E30D9A
:10150800AF81A23020F02230E0E03E070CF407C0A3
:101518000E94E70D21F40A93A22FA15044DEE8852A
:10152800E878E83891F0E885E078C9F4AD85BE85BB
:10153800A25FBE4F0E94F00D3CF0AD85BE85A25F54
:10154800BE4F0E94F50D0CF40AC00E94FA0D38F047
:101558000E94010E21F40A93A42FAF5F24DEAA890A
:10156800BB27EF85F0E0AE1BBF0B8D0111230AF4FA
:1015780045C0E885E278E23891F0E885E07811F531
:10158800AD85BE85A65ABF4F0E94F00D3CF0AD85D3
:10159800BE85A65ABF4F0E94F50D0CF413C0332325
:1015A80012F00E94E30DAF81A23020F02230E0E07B
:1015B8003E070CF407C00E94E70D21F40A93A22FFE
:1015C800A150F1DDE885E478E43871F0E885E07849
:1015D800A9F4AD85BE85EEE0F1E00E94D50D1CF0C2
:1015E8000E94DE0D0CF40AC00E94FA0D38F00E9429
:1015F800010E21F40A93A42FAF5FD5DDAA89BB277A
:10160800E8890E94BF0DEF850E94C60DEF850E94F4
:10161800CD0D81F0E885E078F1F4EB85FC85AD85AA
:10162800BE85AE17BF072CF0E985FA85EA17FB07D8
:101638000CF411C033237AF00E94E30DAF81A2307D
:1016480050F0E02FEE5F0E940A0E29F4E02FEF5FC2
:10165800EA93A22FA8DDE885E878E83871F0E885F4
:10166800E078C1F4AD85BE85E8E6F1E00E94D50DCD
:101678001CF00E94DE0D0CF40DC00E94FA0D50F013
:10168800E02FEE5F0E94120E29F4E02FEF5FEA933D
:10169800A42F89DDAA89BB27E889F0E0AE1BBF0B20
:1016A8008D0111230AF450C0E885E278E23871F020
:1016B800E885E07809F5AD85BE85E4EBF0E00E94A9
:1016C800D50D1CF00E94DE0D0CF416C03323A2F0D9
:1016D8000E94E30DAF81A23020F00230E0E01E0747
:1016E8000CF40AC0E02FE2500E940A0E29F4E02F01
:1016F800E150EA93A22F57DDE885E478E43891F0C9
:10170800E885E07809F5AD85BE85AC54BF4F0E94E9
:10171800F00D3CF0AD85BE85AC54BF4F0E94F50D71
:101728000CF412C00E94FA0D20F00230E0E01E070F
:101738000CF40AC0E02FE2500E94120E29F4E02FA8
:10174800E150EA93A42F2FDD0E9485106396089537
:10175800AA930E948010AF81BB27ED81F0E0AE1BF9
:10176800BF0BF7DC1E2FAF81BB27ED81F0E0AE0F7A
:10177800BF1FEFDC0E2FAE81BB27EC81F0E0AE1B64
:10178800BF0BFCDC3E2FAE81BB27EC81F0E0AE0F37
:10179800BF1FF4DC2E2F1A933A930A93A32F8FDDE1
:1017A8001A932A930A93A22F8ADD0E9487102896FB
:1017B8000895AA930E947E10A985A03818F4A885D8
:1017C800A03408F04FC050916801E52F5150E03027
:1017D80009F448C0EF81E03009F444C0EF81E150DA
:1017E800EF83EF5F0E2FF0E0A5E0B0E0AE1BBF0B7C
:1017F800FD010E94EE0F0E94F30F9F0110E0AE81E1
:10180800A03459F40E941A0E1A93A02FA1DF0E9447
:101818001A0E0A93A12F9CDF0FC00E941A0E1A936A
:101828000A93EA85F0E0FA93EA93E0E0F0E0FA93AD
:10183800EA93A0E0B0E039DE1F5F33231AF4E12F0A
:10184800F0E008C00150A12FBB27E02FF0E0AE1B4D
:10185800BF0BFD01EE0FFF1F31962E0F3F1F011723
:1018680070F6B3CF0E9485102A960895AA93EA814C
:10187800EA93EA81EA93EA81EA93AFE89ADF60C0E3
:10188800BA93AA93B981A881109631F0FC81EB81B3
:101898006A8161931197E9F7EB81FC812596089598
:1018A800AA93E881F0E0E45AF94FA491E9810E94F3
:1018B800DE0F22960895AA931A93E981E73011F072
:1018C800EA3019F41091600109C0E93019F4109157
:1018D800610104C0E830A1F410917001E091610148
:1018E800E03049F0103019F0EFEF188129C0EA8193
:1018F800E095188125C0103019F4E0E0188120C067
:10190800EA8118811DC0BA93AA93EA81E13021F4D3
:10191800E881F981E49114C0E23029F4A881B98101
:101928000E945D100DC0E33041F4A881B981E091B7
:101938007901F0917A01099503C0A881B981EC91E8
:1019480023960895AA93EB81E03029F4E881A981D0
:10195800BA81EC9314C0E23031F4E881A981BA81EC
:101968000E9469100CC0E33051F4E981FA81FA93BE
:10197800EA93AA81E0917B01F0917C010995249674
:101988000895A1E00E94DE0FEBBBD801A20FB31FA0
:1019980050970895EE0FFF1FEA0FFB1F049008BA37
:1019A8000895E0E2EA93EA930895A6E0B0E00E9481
:1019B80025100E94F80F0E94950EDF01CB010895B3
:1019C800A0E0B0E088E991E40E941F0FA0E0B0E039
:1019D80080E092E40E94CF0E0E945C0E0895A0E081
:1019E800B0E080E791E40E941F0FA0E0B0E080E043
:1019F80092E40E94CF0E0E945C0E0895AEE1B0E022
:101A08000E9425100E94F80F0E94950EDF01CB015D
:101A18000895A0E0B0E080E391E40E941F0FA0E0E9
:101A2800B0E080E092E40E94CF0E0E945C0E089520
:101A38000E944B100E9441100895AD81BE818F8194
:101A480098850895ED83FE836F837887F6CFED81BF
:101A5800FE816F81788508950E94C80EED83FE830C
:101A68006F8378870895A981BA818B819C810E94B0
:101A78001F0F08959198EFEFE4BBE881E5BB0E9442
:101A88004C050C945005E695E695E695AE2F0C941A
:101A98008C050E94B0050C949B05EA0FFB1FEE8392
:101AA800FF830895EC85EA93EF81F8853196EF83FB
:101AB800F8873197FA93EA93A0E00C94A60CEC858A
:101AC800EA93EF81F8853196EF83F8873197089587
:101AD80066277727DF01CB010C94870C5A93AA85D8
:101AE8000C945F0C0A930395E889EA935A93089536
:101AF8000A930395A8890E94C205E42308955E2FDE
:101B0800EC85EA93AF81B885882799270E94870CCE
:101B18001E2E08950A930395E889EA93EE85EA93C1
:101B2800E985FA853196E987FA873197D1CFBA9353
:101B3800AA93A881B9810E947A100895ED83FE8343
:101B48000895AE81AF5FAE83A150E0916801AE17F2
:101B580008953A93AA850C943B09A985BA85EA0F9A
:101B6800FB1FE987FA870895E985FA85EA1BFB0BCD
:101B7800E987FA870895F0E0EA0FFB1F8F01A9892A
:101B8800BB270895F0E0AE1BBF0B9D01A989BB27B9
:101B98000895F0E0EA0FFB1FAF01E885E178E1382E
:101BA8000895EA1BFB0B0F01DF01EB85FC85AE17DF
:101BB800BF070895E985FA85E015F10508950A93A8
:101BC800A22F0C94D7080A93A22FA2500E947B063A
:101BD800AE2FEE81EA170895EB85FC85AE17BF0797
:101BE8000895E985FA85EA17FB0708950A93A42F53
:101BF8000E94D708AF81A23008950A93A42FAE5F40
:101C08000E947B06AE2FEE81EA170895EA93A22F71
:101C18000E947B06AE2FEE81EA170895EA93A42F5F
:101C28000E947B06AE2FEE81EA170895E985EA93B4
:101C3800E985EA930895109639F080ED97E00197C9
:101C4800F1F7A8951197C9F708953097604070404B
:101C580009F070580895552342F4503811F4E0FF04
:101C680004C03196691F791F6BF050E8572711F4AB
:101C78005F93CFC05F3F31F0660F000C57956795B3
:101C8800752F08955F9300200AF0CFC0C8C050E8B0
:101C9800192E1522880F991F9527550F879550E8FB
:101CA800072E0522660F771F7527550F679508952C
:101CB800689401C0E8945F93F2DF703818F07F3FB2
:101CC80008F4A7C056E1571BAAF4519558300EF4F2
:101CD800593030F0EFEFFFEF6FEF7FE777F91AC079
:101CE80077275523B9F0EE0FFF1F661F771F5A9508
:101CF800D1F710C07727583028F0EF2FF62F672F2D
:101D08005850F9CF552331F076956795F795E795B3
:101D18005A95D1F700200AF445D15F910895689447
:101D280001C0E894309760407040B1F0002426F07C
:101D3800772312F4009436D1172E7EE1112032F069
:101D48007A95EE0FFF1F661F111CF9CFEF2FF62FA4
:101D5800612D5F938ADF5F9108954F93AF01FD0175
:101D6800DA01AB01BC01CA01402D012C142E4F91A0
:101D78000895EA0FFB1F681F0895E095F095609598
:101D8800EF5FFF4F6F4F08955F9381DF903871F1D8
:101D980050E8152604C05F937ADF903839F170381F
:101DA80021F1572F591B2BF112F4D7DFFACF5831F5
:101DB80018F0AA27BB278827583028F0AB2FB82F50
:101DC80088275850F9CF552329F08695B795A795B8
:101DD8005A95D9F7502D512572F0CBDF38F4679515
:101DE800F795E795739513F420C0B7DF3EDF5F9151
:101DF8000895D8F7FBCFEA1BFB0B680B51F010F4E2
:101E08000094BBDF662392F3EE0FFF1F661F7A95DF
:101E1800CBF7EE27FF27662777275F910895EFEF27
:101E2800FFEF6FE77FEF5F910895EFEFFFEF6FE749
:101E38007FE75F9108955F932ADF703851F39038F8
:101E480041F301240894791F23F41CF300203AF38A
:101E5800ECCF0F921F932F933F934F931127222775
:101E68009927689FA0018F9F302D410D591F6B9FA7
:101E7800300D411D591F8E9F27D0BF9F25D06A9FC7
:101E880023D0BE9F1DD0AF9F1BD0AE9F110D291F21
:101E9800391F491F591FE32FF42F652F522F4F91D8
:101EA8003F912F911F910F9066232AF0550FEE1F37
:101EB800FF1F661F02C073954BF2CDDE5F91089538
:101EC800100D211D391F02C0200D311D491F591F3A
:101ED80008955F93DCDE703821F411200AF49FCF57
:101EE800A4CF903809F495CF01240894970B1BF4DC
:101EF800D4F30020F3CF792F1F932F933F934F9361
:101F080011241127222733274427552790E2AE179B
:101F1800BF078607410730F0AE1BBF0B860B410B8E
:101F2800089401C08894551F221F331F111CAA1F33
:101F3800BB1F881F441F9A9551F7F901612D4F91D6
:101F48003F912F911F91662332F0550FEE1FFF1F0F
:101F5800661F7A9543F27FDE5F91089599239AF080
:101F6800772342F0971748F029F4AE17BF07860782
:101F780020F031F0989488940895989408940895DE
:101F88001894889408957723C2F7971798F3A9F7B8
:101F9800EA17FB07680788F399F3ECCFF195E19509
:101FA800F0400895F09560957095E195FF4F6F4F5B
:101FB8007F4F0895EE230E2EEA2F19F0EE0F0A94A4
:101FC800E9F70895EE230E2EEA2F19F0E6950A9404
:101FD800E9F70895EE0FFF1FEE0FFF1F0895F5951F
:101FE800E795F595E79508956F2F660F660B762FA1
:101FF8000895FA9FF02DEB9FF00DEA9FE02DF10D6B
:1020080008957A9F702D6B9F700DF89F700DE99F52
:10201800700D6A9F602D710DFB9F600D711DE89F0B
:10202800600D711D8827FA9FF02D610D781FEB9FB9
:10203800F00D611D781FEA9FE02DF10D681F781FD4
:10204800089504D0D6DF0EF4A9DF0895E894F7FFC9
:1020580002C0A4DF6894B7FF06C0A095B09511969A
:1020680000F8039400FA0895ED91FC9111970895F2
:10207800E881F9816A817B810895A881B9818A8183
:102088009B810895E883F9836A837B8308959A93F3
:102098008A93BA93AA930895182E862F612D192E24
:1020A800972F712D1B2EBF2FF12D1A2EAE2FE12D3C
:1020B8000895E199FECFFF93FFB7F894AEBBBFBB7D
:1020C800E09AEDB3FFBFFF910895E19B02C0A89588
:1020D800FCCF9FB7F894AEBBBFBBE09A8DB3E817AF
:1020E80019F0EDBBE29AE19A9FBF089500240A1601
:1020F8000B0608955A934A933A932A931A930A938C
:1021080008955D814C813B812A8119810881089558
:00000001FF
