:100000000C944E000C947F000C9487000C9400001C
:100010000C9400000C9400000C9400000C94000060
:100020000C9400000C94CE000C9400000C94000082
:100030000C9400000C9400000C9400000C94000040
:100040000C9400000C9400000C94A1000C9400008F
:100050000C9400001027E80364000A00010000105F
:100060000001100001000000000000000000E80393
:1000700025643A25643A25642020200046554C4CDE
:1000800020200025643A25643A25640080C00A00D7
:100090000400660002009C018C000000F894EE272A
:1000A000ECBBF1E0FBBFEBBFE5BF8DE0A2E0BB27FF
:1000B000ED938A95E9F780E094E0A0E6ED9301974F
:1000C000E9F7EEE8F0E085919591009761F0A59150
:1000D000B59105901590BF01F00105900D92019723
:1000E000E1F7FB01F0CFEFE5EDBFE4E0EEBFC0E6E6
:1000F000D1E00C947B000E940A01FFCFFFCFEA936E
:10010000FA93E1E0F0E02F01F991E99118950E944E
:10011000A103E1E0F0E0E415F50519F444245524C9
:100120000FC0042C052861F46624772488249924C0
:10013000AA24BB240E94AF03E0E7F0E00E94B903C9
:100140005BC00E94A103E6B3E76FE73F91F40C2C7C
:100150000D2839F40E94D203ACE7B0E00E944603B8
:1001600007C0F60131976F010E94D2030E94D703A6
:1001700014C0E6B3EF6EEF3E81F4F60131966F01E5
:100180003197E9EEF3E0EC15FD0519F4E8EEF3E044
:100190006F010E94D2030E94D7032EC00E94A103C8
:1001A000E0EBE2BFE1E0F0E0E415F50529F5EBE373
:1001B000F0E0EA15FB05B9F4E815F90571F4E7E19B
:1001C000F0E0E615F70519F46624772403C0F3017F
:1001D00031963F018824992403C0F40131964F01E0
:1001E000AA24BB2403C0F50131965F010E94AF032E
:1001F000E3E8F0E00E94B903E991EFBFF991E991DA
:10020000B991A9919991899179916991F9901990F0
:1002100009901895E0E0EABBEFEFEBBBE0E0E7BB4D
:10022000ECE0E8BBEFEFE4BBE0E0E5BBE0EFE1BB17
:10023000E0E0E2BBE1E0E3BFE0EBE2BFE0E0ECBF27
:10024000E1E0E9BFEBB7E06EEBBFEAE0E5BFE0E07D
:10025000E4BFE0EEEABFA0E10E945903789408955C
:10026000BA93AA931A930A93AA81BB8112960E9409
:100270003D04309759F1AA81BB8114960E943D0438
:100280008F01309761F00230E0E01E0798F0F8012E
:1002900031978F01AA81BB811496ED93FC93AA81BB
:1002A000BB811296ED91FD913196FE93EE933197BD
:1002B000AC81A083AA81BB810E943D04FF232AF068
:1002C000ED91FD913196FE93EE9306C0AA81BB811C
:1002D000EFEFFFEFED93FC931981088125960895C8
:1002E000BA93AA9326970E944A0410E0AC85BD8574
:1002F000E0E0F0E0ED93FC93EA89FB893196EA8B2C
:10030000FB8B3197E4912E2FE03009F415C1E12FDA
:10031000E03039F4253211F411E002C00E94EC0300
:100320000AC1E130A9F4253219F40E94EC0302C19C
:1003300012E040E000E02D3211F401E0FCC02B326D
:1003400011F44BE2F8C0203211F440E2F4C002C0D4
:10035000E23039F450E013E0203311F40068EBC0D0
:1003600003C0E33009F0E7C0203310F02A3308F06F
:1003700007C0AAE05A9F502DE22FE0535E0FDBC06A
:10038000E22FE33649F40E94F303E889F989A48156
:10039000AA930E94F903CEC0E33741F40E94F3030D
:1003A0000E94FF030E9488031E2F0AC0E03761F4F9
:1003B0000E94F3030E94FF030E9494031E2F086013
:1003C00002600F7730E034C0E43611F0E93611F402
:1003D000046002C0E53731F4E4E5F0E0EE83FF832A
:1003E00015E00CC0E83511F4086003C0E83709F0E7
:1003F000A1C0EEE5F0E0EE83FF8314E002FF14C03D
:100400000E94F3030E940904AB85AA233AF4EA850B
:10041000FB850E943404EA87FB874DE2403011F0EF
:100420001F5F01C00B7F04C00E94F3030E940904F8
:1004300000FD11C0151778F407FF08C002FF04C0C3
:100440000B7F242F115001C020E301C020E20E9445
:10045000EC035150EFCF312F01FF17C03030A1F026
:1004600003FF06C0EE81FF812591EE83FF8305C067
:10047000AE81BF812D91AE83BF830E94EC035030CB
:1004800009F051503150EACF4BC020E3EE81FF819B
:100490000E944104E887F987EE81FF813296EE835E
:1004A000FF83E885F985AA85BB85AE17BF0750F0A5
:1004B0002F5FA885B985EA85FB85EA1BFB0BEA87D8
:1004C000FB87EFCF2A3328F003FF02C0295F01C06A
:1004D000295D04FD1AC0213320F4A885B985119740
:1004E00009F409C0531710F000FF01C013C020E247
:1004F00007FF0BC020E3006102FF07C00B7F4A9398
:100500000E94F903503009F051500E94EC03503022
:1005100009F051503150A885B985129708F0B5CF30
:1005200000FF08C0503031F05150E0E2EA930E94E1
:10053000F903F8CF10E0E0CEAC85BD850E943D0404
:100540000E94510464960895FF92F82E26970E9407
:100550004C040E941104309719F4EFEFFFEF23C011
:10056000DE0116960E9430048D010E941104EE8374
:10057000FF83E0E0E887E987DE011A960E943004F5
:100580000E943D04FA93EA931A930A93E0E3F1E0A0
:10059000FA93EA93DE011A96A3DE9F01AE81BF8132
:1005A000E0E0EC93F9010E9453042A96FF9008952D
:1005B000AA93E5B3EF70AE2FE881E07FEA2BE5BBAD
:1005C0008DE08A95F1F7AA9A8DE08A95F1F7AA98BD
:1005D0008DE08A95F1F79AC0AA93A881E9DFE881B6
:1005E000E295E883A881E4DF85E88A95F1F78EC07B
:1005F000AA93E881F0E0E456FE4FE081A981AE0FB6
:10060000EBDFE981E093A001E881E093A10122966C
:100610000895A2E00E941804ACE0DEDFA1E00E9491
:100620001804E0E0E093A101E093A0010895AA93EB
:10063000A881AA3031F0E091A201A091A001AE17EB
:1006400060F0E0E0EA93A091A101AF5FA093A10167
:10065000CFDFA881AA3009F459C0E091A001EF5F73
:10066000E093A001A89AA881B7DFA8984FC0BA93D9
:10067000AA931A93A981BA81ED91A983BA831E2FF7
:10068000E03019F0A12FD3DFF5CF10C0BA93AA93B1
:100690001A93E981FA813196E983FA833197E491DB
:1006A0001E2FE03019F0A12FC2DFF3CF188123965F
:1006B0000895AA93E4B3E06FE4BBA29AA09AA19A2A
:1006C000AA98A898A998E881E093A201E058E0933D
:1006D0009E01E881E054E0939F01A4E1B0E00E9414
:1006E00026040E941E040E941E040E941E04A0E212
:1006F0005FDF88EC90E00197F1F7A8E26DDFA4E0FE
:100700006BDFA5E869DFA6E067DF83DF2196089548
:10071000BA93AA93A991B991EE27FF276D91662309
:1007200011F03196FBCF0895BA93AA93AA27BB275D
:10073000E991F9910590002011F01196FBCFFD0190
:1007400008950A921A92FA926A937A938A939A93E4
:10075000AA93BA93EA93FA93EFB7EA930895E0E085
:10076000EA93A0E00E94F802E0E6F1E0FA93EA934F
:100770000895FA93EA93F3010E9438040E94450415
:10078000F4010E9438040E944504F5010E943804D7
:100790000E9445048CE00E94A4026096A0E6B1E0AD
:1007A0000C943703E0E0EA93A1E00C94F802E0E651
:1007B000F1E0FA93EA93E6E7F0E0FA93EA93F601C0
:1007C0000E9438040E94450484E00E94A4022896F6
:1007D000A0E6B1E00C9437032A93AD85BE85EF8582
:1007E000F88909950895E889F9893497E88BF98B98
:1007F0000895AD85BE85EF85F88909950895A88986
:10080000B98914960E943D04EE83FF83AE81BF81B7
:100810000895A889B98914960E943D04EA87FB8748
:100820000895DE011C960E9430040E943D04089544
:100830000E94EC02A3E0B0E00C942604A0E30E9426
:10084000D80288EC90E00197F1F70895109639F0FE
:1008500080ED97E00197F1F7A8951197C9F70895F2
:100860000024AF0DB01D0895F195E195F040089575
:100870006F2F660F660B762F0895ED91FC911197FF
:1008800008950590F491E02D08957A936A93FA9370
:10089000EA9308955A934A933A932A931A930A93A0
:1008A00008955D814C813B812A81198108810895D9
:00000001FF
