:0A0000000C944A000C9400000C94CC
:10000A0000000C9400000C9400000C9400000C9466
:10001A0000000C9400000C9400000C9400000C9456
:10002A0000000C9400000C9400000C9400000C9446
:10003A0000000C9400000C9400000C9400000C9436
:10004A0000000C9400000C9400001027E8036400E0
:10005A000A00010000100001100001003F00060024
:10006A005B004F0066006D007D0007007F006F0097
:10007A0001002D4E414E00494E460000130060011A
:10008A006600010074017A000000F894EE27ECBBC8
:10009A00F1E0FBBFEBBFE5BF8DE0A2E0BB27ED932C
:1000AA008A95E9F780E094E0A0E6ED930197E9F7F5
:1000BA00E6E8F0E085919591009761F0A591B591F8
:1000CA0005901590BF01F00105900D920197E1F797
:1000DA00FB01F0CFEFE5EDBFE4E0EEBFC0E6D1E013
:1000EA000C9481011A930A93E0E0E8BB00E010E067
:1000FA000830E0E01E075CF4E8B3AFEFEA27E8BB9C
:10010A00A4EFB1E00E94A4010F5F1F4FF1CF40C0DE
:10011A000E94F90101E010E020E030E02830E0E040
:10012A003E0754F408BB000F111FA7E7B1E00E9475
:10013A00A4012F5F3F4FF2CFE0E0E8BB0E9400022C
:10014A00249608951A930A9300E010E000E010E064
:10015A000C32E1E01E074CF4AAE0B0E00E94A401D0
:10016A00E9B3E8BB0F5F1F4FF3CF12C01A930A938C
:10017A00E0E0E2BB09E010E0112352F0F8010E942E
:10018A009201A4EFB1E00E94A40101501040F4CF03
:10019A000991199108952E970E94F70120E030E005
:1001AA0041E050E02E833F8309B311270024001653
:1001BA000106ACF4D8010E949B01EA8BFB8BFA0181
:1001CA00AA89BB890E94BA012E0F3F1FD801EAE013
:1001DA00F0E00E94D2018F01440F551FE7CF2E8312
:1001EA003F83AE81BF810E94F3010CF05EC0E0E064
:1001FA00EE87EF870E949B01EC87FD87AE81BF8166
:10020A00EAE0F0E00E94D201DF010E949B01EA8746
:10021A00FB87AE81BF81E4E6F0E00E94D201DF01F4
:10022A000E949B01E887F987E5E0F0E0E88BF98B0B
:10023A00A889B9890E94F30194F5E7E0E2BBE8894D
:10024A00F989EE0FFF1FDF010E949B010E949201B4
:10025A000E94A001EBE0E2BBEC85FD85A0E6B1E0DF
:10026A00EE0FFF1FAE0FBF1FEC91E068E5BB0E94C7
:10027A00A001EDE0E2BBEA85FB850E9492010E94A3
:10028A00A001EEE0E2BBE885F9850E9492010E9496
:10029A00A001E889F9893197E88BF98BC9CFEE81FA
:1002AA00FF813197EE83FF839CCF0E94FE01649603
:1002BA000895849904C0E2B3EE7FEE6011C0859977
:1002CA0004C0E2B3ED7FED600BC0869904C0E2B3CF
:1002DA00EB7FEB6005C0879907C0E2B3E77FE76071
:1002EA00E2BBE0916001E5BBE4CFFCDE11DF3EDF5B
:1002FA0029DF51DFDEDFFCCFE0E0EABBEFEFEBBB4B
:10030A00E7BBE0E0E8BBEFEFE4BBE0E0E5BBEFE032
:10031A00E1BBE0EFE2BBE9DFFFCFA0E6B1E0EE0F21
:10032A00FF1FAE0FBF1FEC91E5BB0895EAE0F0E0B6
:10033A000E94D7010895A4E6B0E00C94A401109697
:10034A0039F080ED97E00197F1F7A8951197C9F771
:10035A000895F195E195F0400895FA9FF02DEB9FED
:10036A00F00DEA9FE02DF10D08952AD0F6DF0EF484
:10037A00F0DF08950024112490E1AA0FBB1F001C8E
:10038A00111C0E1A1F0A18F40E0E1F1E01C0A160BE
:10039A009A9599F7FD01D001089512D0EBDF0EF47A
:1003AA00D8DF0895E894B7FF04C0A095B0951196D8
:1003BA006894F7FDCEDFDEDFFD010EF4CADF089593
:1003CA00E894F7FF02C0C5DF6894B7FF06C0A0959E
:1003DA00B095119600F8039400FA089500240A16BD
:1003EA000B0608955A934A933A932A931A930A93B7
:1003FA0008955D814C813B812A8119810881089584
:00000001FF
