:040000000C944B0011
:100004000C9400000C9400000C9480000C940000EC
:100014000C947F000C9400000C9400000C94780065
:100024000C9400000C9400000C9400000C9400004C
:100034000C9400000C9400000C9400000C9400003C
:100044000C9400000C9400000C9400000C9400002C
:100054001027E80364000A000100001000011000EA
:100064000100000000000000000073706565643A40
:1000740025642E25642052504D004F4352303D25B7
:10008400640080C008000400660002009C01860031
:100094000000F894EE27ECBBF1E0FBBFEBBFE5BF3B
:1000A4008DE0A2E0BB27ED938A95E9F780E094E028
:1000B400A0E6ED930197E9F7E8E8F0E085919591E2
:1000C400009761F0A591B59105901590BF01F001DD
:1000D40005900D920197E1F7FB01F0CFEFE5EDBF3D
:1000E400E4E0EEBFC0E6D1E00C948F01EA93E5E8CA
:1000F400EDBDEEEEECBDE991189518950A921A92B1
:10010400FA926A937A938A939A93AA93BA93EA9304
:10011400FA93EFB7EA930E941404EEE6F0E0FA9340
:10012400EA93E5EEF0E060E070E00E94B705E8E0F5
:10013400F0E060E070E00E94B70588E00E943703B9
:100144002C96A0E6B1E00E94BB03F30131963F0177
:10015400E4E6F0E0E615F705C4F1F30131963F015A
:10016400F501309741F4E8B3EF70E8BBC49AF501A8
:1001740031965F0122C0E130A0E0FA0741F4E8B310
:10018400EF70E8BBC59AF50131965F0116C0E23005
:10019400A0E0FA0741F4E8B3EF70E8BBC69AF501B2
:1001A40031965F010AC0E330A0E0FA0731F4E8B306
:1001B400EF70E8BBC79AAA24BB24E5E6F0E0E61595
:1001C400F70511F40E941B0438C0E4E6F0E0E615DC
:1001D400F7059CF5F30131963F01F501E330A0E00A
:1001E400FA0739F4E8B3EF70E8BBC49AAA24BB2435
:1001F4001BC0E230A0E0FA0729F4E8B3EF70E8BBD3
:10020400C59A0FC0E130A0E0FA0729F4E8B3EF7013
:10021400E8BBC69A06C0309739F4E8B3EF70E8BB80
:10022400C79AF50131965F01E8ECF0E0E615F705B1
:1002340021F4662477240E941B04E991EFBFF9910D
:10024400E991B991A9919991899179916991F990DB
:10025400199009901895E5EEECBFA8E8B3E10E9467
:100264005904089528970E94BE0500E010E00E315D
:10027400E0E01E070CF04BC00F5F1F4F29B333277C
:10028400F9010E94AA050E94C904A3E3B3E383EB26
:100294009EE30E944C05A0E0B0E080EA90E40E9456
:1002A400FC04E887F9876A877B87A885B9858A85EE
:1002B4009B85E3E3F3E363E270E40E944C05A0E072
:1002C400B0E080E09FE30E94FC04EC83FD836E8336
:1002D4007F830E949204ECBF0E941404EEE7F0E0D6
:1002E400FA93EA93E885F9856A857B850E949204EE
:1002F4000E94AA050E94B70584E00E94370328964D
:10030400A0E6B1E00E94BB030E941B04B0CF0E9490
:1003140098030E94C5052C96089505D09CDFA2DFA2
:100324007894FFCFFFCFE0E0EABBEFEFEBBBE7BB96
:10033400E0E0E8BBEFEFE4BBE0E0E5BBE3E8E1BB12
:10034400ECEFE2BBE5E6E3BFE0E0E2BFEFBDE4E4EF
:10035400EEBDE5E8EDBDEEEEECBDE0E0E7BDE6BDEB
:10036400EBBDEABDE9BDE8BDE2BDE7E6E5BDE0E021
:10037400E4BDE0E8E3BDE4EAE9BFA0E10E94CC0308
:100384000895BA93AA931A930A93AA81BB811296E9
:100394000E94AF05309759F1AA81BB8114960E943F
:1003A400AF058F01309761F00230E0E01E0798F04E
:1003B400F80131978F01AA81BB811496ED93FC93C8
:1003C400AA81BB811296ED91FD913196FE93EE9335
:1003D4003197AC81A083AA81BB810E94AF05FF2322
:1003E4002AF0ED91FD913196FE93EE9306C0AA8119
:1003F400BB81EFEFFFEFED93FC9319810881259604
:100404000895BA93AA9326970E94BC0510E0AC8580
:10041400BD85E0E0F0E0ED93FC93EA89FB89319639
:10042400EA8BFB8B3197E4912E2FE03009F415C150
:10043400E12FE03039F4253211F411E002C00E94BA
:100444001F040AC1E130A9F4253219F40E941F04E3
:1004540002C112E040E000E02D3211F401E0FCC0E2
:100464002B3211F44BE2F8C0203211F440E2F4C014
:1004740002C0E23039F450E013E0203311F4006894
:10048400EBC003C0E33009F0E7C0203310F02A3397
:1004940008F007C0AAE05A9F502DE22FE0535E0FE8
:1004A400DBC0E22FE33649F40E942604E889F98987
:1004B400A481AA930E942C04CEC0E33741F40E9485
:1004C40026040E9432040E94FB031E2F0AC0E03758
:1004D40061F40E9426040E9432040E9407041E2F25
:1004E400086002600F7730E034C0E43611F0E9367A
:1004F40011F4046002C0E53731F4E4E5F0E0EE8382
:10050400FF8315E00CC0E83511F4086003C0E83738
:1005140009F0A1C0EEE5F0E0EE83FF8314E002FFF2
:1005240014C00E9426040E943C04AB85AA233AF41A
:10053400EA85FB850E949E05EA87FB874DE24030F1
:1005440011F01F5F01C00B7F04C00E9426040E94AB
:100554003C0400FD11C0151778F407FF08C002FF22
:1005640004C00B7F242F115001C020E301C020E2FE
:100574000E941F045150EFCF312F01FF17C03030BC
:10058400A1F003FF06C0EE81FF812591EE83FF8376
:1005940005C0AE81BF812D91AE83BF830E941F042D
:1005A400503009F051503150EACF4BC020E3EE8176
:1005B400FF810E94B305E887F987EE81FF813296B7
:1005C400EE83FF83E885F985AA85BB85AE17BF074F
:1005D40050F02F5FA885B985EA85FB85EA1BFB0BE4
:1005E400EA87FB87EFCF2A3328F003FF02C0295F95
:1005F40001C0295D04FD1AC0213320F4A885B98502
:10060400119709F409C0531710F000FF01C013C07B
:1006140020E207FF0BC020E3006102FF07C00B7F4D
:100624004A930E942C04503009F051500E941F0438
:10063400503009F051503150A885B985129708F00F
:10064400B5CF00FF08C0503031F05150E0E2EA93DA
:100654000E942C04F8CF10E0E0CEAC85BD850E944A
:10066400AF050E94C30564960895FF92F82E26975D
:100674000E94BE050E944404309719F4EFEFFFEF87
:1006840023C0DE0116960E949A058D010E9444043F
:10069400EE83FF83E0E0E887E987DE011A960E9493
:1006A4009A050E94AF05FA93EA931A930A93E3EC2E
:1006B400F1E0FA93EA93DE011A96A3DE9F01AE817C
:1006C400BF81E0E0EC93F9010E94C5052A96FF90F2
:1006D4000895AA93E5B3EF70AE2FE881E07FEA2B8B
:1006E400E5BB8DE08A95F1F7AA9A8DE08A95F1F73A
:1006F400AA988DE08A95F1F77AC0AA93A881E9DFD8
:10070400E881E295E883A881E4DF85E88A95F1F73A
:100714006EC0AA93E881F0E0E456FE4FE081A9811F
:10072400AE0FEBDFD980C88022960895A2E00E9424
:100734004B04ACE0E2DFA1E00E944B04E0E0CE2EEB
:10074400DE2E0895AA93A881AA3021F0E091A00199
:10075400DE1648F0E0E0EA93C394AC2DDADFA8811A
:10076400AA3009F444C0D394A89AA881C6DFA898F3
:100774003EC0BA93AA931A93A981BA81ED91A98331
:10078400BA831E2FE03019F0A12FDCDFF5CF1881DA
:1007940023960895AA93E4B3E06FE4BBA29AA09AC7
:1007A400A19AAA98A898A998E881E093A001E05892
:1007B400E0939E01E881E054E0939F01A4E1B0E05E
:1007C4000E9459040E9451040E9451040E94510441
:1007D400A0E27FDF88EC90E00197F1F7A8E28DDFDB
:1007E400A4E08BDFA5E889DFA6E087DF9FDF219601
:1007F4000895BA93AA93A991B991EE27FF276D9111
:10080400662311F03196FBCF0895BA93AA93AA27D1
:10081400BB27E991F9910590002011F01196FBCFC7
:10082400FD0108950E949803E0E6F1E0FA93EA934B
:100834000895A8EEB3E00C9459042A93AD85BE85BF
:10084400EF85F88909950895E889F9893497E88B43
:10085400F98B0895AD85BE85EF85F88909950895CE
:10086400A889B98914960E94AF05EE83FF83AE81EF
:10087400BF810895A889B98914960E94AF05EA87B3
:10088400FB870895DE011C960E949A050E94AF051D
:1008940008950E947F03A3E0B0E00C945904A0E300
:1008A4000E946B0388EC90E00197F1F7089510968D
:1008B40039F080ED97E00197F1F7A8951197C9F702
:1008C4000895552342F4503811F4E0FF04C03196E2
:1008D400691F791F6BF050E8572711F45F93C8C064
:1008E4005F3F31F0660F000C57956795752F08959B
:1008F4005F9300200AF0C8C0C1C050E8192E152229
:10090400880F991F9527550F879550E8072E0522C4
:10091400660F771F7527550F67950895689401C072
:10092400E8945F93F2DF703818F07F3F08F4A0C0BA
:1009340056E1571BAAF4519558300EF4593030F053
:10094400EFEFFFEF6FEF7FE777F91AC077275523B3
:10095400B9F0EE0FFF1F661F771F5A95D1F710C02D
:100964007727583028F0EF2FF62F672F5850F9CFFC
:10097400552331F076956795F795E7955A95D1F714
:1009840000200AF4DDD05F910895689401C0E894D2
:10099400309760407040B1F0002426F0772312F4C1
:1009A4000094CED0172E7EE1112032F07A95EE0F0E
:1009B400FF1F661F111CF9CFEF2FF62F612D5F93D8
:1009C4008ADF5F9108954F93AF01FD01DA01AB0116
:1009D400BC01CA01402D012C142E4F910895EA0F39
:1009E400FB1F681F0895E095F0956095EF5FFF4F3A
:1009F4006F4F08955F9381DF903839F1703821F19A
:100A0400572F591B2BF112F4DEDFFACF583118F0AF
:100A1400AA27BB278827583028F0AB2FB82F882760
:100A24005850F9CF552329F08695B795A7955A952F
:100A3400D9F7502D512572F0D2DF38F46795F79528
:100A4400E795739513F420C0BEDF45DF5F910895E9
:100A5400D8F7FBCFEA1BFB0B680B51F010F40094A2
:100A6400C2DF662392F3EE0FFF1F661F7A95CBF762
:100A7400EE27FF27662777275F910895EFEFFFEFB3
:100A84006FE77FEF5F910895EFEFFFEF6FE77FE789
:100A94005F9108955F9331DF703851F3903841F3DB
:100AA40001240894791F23F41CF300203AF3ECCFBB
:100AB4000F921F932F933F934F9311272227992728
:100AC400689FA0018F9F302D410D591F6B9F300DE2
:100AD400411D591F8E9F27D0BF9F25D06A9F23D0C9
:100AE400BE9F1DD0AF9F1BD0AE9F110D291F391F74
:100AF400491F591FE32FF42F652F522F4F913F9118
:100B04002F911F910F9066232AF0550FEE1FFF1FA0
:100B1400661F02C073954BF2D4DE5F910895100DE9
:100B2400211D391F02C0200D311D491F591F089571
:100B34000024AF0DB01D0895F195E195F04008959E
:100B4400F09560957095E195FF4F6F4F7F4F089535
:100B54006F2F660F660B762F0895ED91FC91119718
:100B640008950590F491E02D08957A936A93FA9389
:100B7400EA9308955A934A933A932A931A930A93B9
:100B840008955D814C813B812A81198108810895F2
:00000001FF
