:020000000C945E
:100002002F000C9400000C9400000C9400000C943F
:1000120000000C9400000C9400000C9400000C945E
:1000220000000C9400000C9400000C9400000C944E
:1000320000000C9400000C9400000C9400000C943E
:1000420000000C9400000C9400000C9400000C942E
:1000520000003F065B4F666D7D077F6FF894EE27C9
:10006200ECBBF1E0FBBFEBBFE5BF8DE0A2E0BB273D
:10007200ED938A95E9F780E094E0A0E6ED9301978D
:10008200E9F7EFE5EDBFE4E0EEBFC0E6D1E00C94A6
:100092008D00BA93AA93E2B3E57FE2BBE2B3E560D7
:1000A200E2BBEA81FB81EC5AFF4F049005BAA2E35E
:1000B200B0E00E94F700E2B3E67FE2BBE2B3E660A3
:1000C200E2BBE881F981EC5AFF4F049005BA1EC0E9
:1000D200BA93AA93E8B3E57FE8BBE8B3E560E8BB6F
:1000E200EA81FB81EC5AFF4F04900BBAA2E3B0E025
:1000F2000E94F700E8B3E67FE8BBE8B3E660E8BB3E
:10010200E881F981EC5AFF4F04900BBAA2E3B0E008
:100112000E94F700249608952497EFEFEABBE0E0EF
:10012200EBBBEFE0E7BBE0E1E8BBEFEFE4BBE0E015
:10013200E5BBEFE0E1BBE0E1E2BB0EE110E0D8019C
:1001420042D09F0145D0AF013A932A93DA01A1DF51
:1001520001501040E0B3E072E03229F43A932A935E
:10016200DA0197DFF7CFE0B3E071E03121F000244C
:100172000016010631F5E2B3EB60E2BB92980EE1A4
:1001820010E0D80120D0EA83FB8322D0E883F983F0
:1001920026D001501040E6B3E072E03211F41FD0D5
:1001A200FACFE6B3E071E03121F000240016010637
:1001B20029F4E8B3EB60E8BBC29801C0E2CF0EE1DC
:1001C20010E0BDCFFFCFEAE0F0E00E941D010895EC
:1001D200D801EAE0F0E00E941801DF01F4CFEA81E1
:1001E200FB81FA93EA93AA81BB8172CF109639F010
:1001F20080ED97E00197F1F7A8951197C9F7089557
:10020200F195E195F04008950024112490E1AA0FA0
:10021200BB1F001C111C0E1A1F0A18F40E0E1F1E03
:1002220001C0A1609A9599F7FD01D001089512D0FD
:10023200EBDF0EF4E5DF0895E894B7FF04C0A09564
:10024200B09511966894F7FDDBDFDEDFFD010EF459
:10025200D7DF0895E894F7FF02C0D2DF6894B7FFB2
:1002620006C0A095B095119600F8039400FA08957F
:00000001FF
