:0E0000000C94B3000C9400000C9400000C94BF
:10000E0000000C9400000C9400000C9400000C9462
:10001E0000000C9400000C9400000C9400000C9452
:10002E00ED000C9400000C9439010C9400000C941B
:10003E0000000C9400000C9400000C9400000C9432
:10004E0000000C9400001027E80364000A00010071
:10005E000010000110000100000073746172742022
:10006E000D0A0000030001005061727432204265D7
:10007E006767696E732C7075742320617420656ECA
:10008E0064206F6620737472696E673A200D0A00E1
:10009E00506172743220456E64732E200D0A00502A
:1000AE00617274332042656767696E733A200D0A78
:1000BE00006C63642064656C65746520006E6F204F
:1000CE0066756E6374696F6E00506172743320458D
:1000DE006E64732E200D0A004C656E677468206F77
:1000EE0066206672616D65206E6F7420636F72722A
:1000FE00656374004672616D6520697320636F726B
:10010E0072656374004672616D65206D757374203F
:10011E006265203520696E74656765720050617284
:10012E0074342042656767696E733A200D0A0000C9
:10013E0080C001002D4E414E00494E460000010088
:10014E0002006600010060017200020088013E019B
:10015E0001008C0140010000F894EE27ECBBF1E0A9
:10016E00FBBFEBBFE5BF8DE0A2E0BB27ED938A9509
:10017E00E9F780E094E0A0E6ED930197E9F7ECE46F
:10018E00F1E085919591009761F0A591B59105905B
:10019E001590BF01F00105900D920197E1F7FB015B
:1001AE00F0CFEFE5EDBFE4E0EEBFC0E6D1E00C949A
:1001BE00E0000E942E03E8E6F0E00E94FC05F4D079
:1001CE0034D10E940306A0D1FFCFFFCFAA93EA93AA
:1001DE00FA93EFB7EA931A930A931BB10CB1E12F7E
:1001EE00EC71E9F4E0917201EF5FE0937201E1507E
:1001FE00F0E0EE59FE4F0083A0917201A03119F488
:10020E00E0E0E0937201A0917401AF5FA0937401DE
:10021E00A03129F4E0E0E0937401689420F809918C
:10022E0019913EC01A93E0917401E030E1F3E09130
:10023E007301EF5FE0937301E150F0E0EE59FE4F72
:10024E001081A0917301A03119F4E0E0E0937301E5
:10025E00F894E0917401E150E09374017894E12FE9
:10026E0019910895AA93EA93FA93EFB7EA93E0915E
:10027E008701E030A9F0E150E0938701E09186011B
:10028E00EF5FE0938601E150F0E0EB58FE4FE08126
:10029E00ECB9A0918601A03119F4E0E0E09386015B
:1002AE00E991EFBFF991E991A9911895AA93A091BF
:1002BE008701A031E1F3F894E0918701E03011F469
:1002CE005D9918C0E0918501EF5FE0938501E150E3
:1002DE00F0E0EB58FE4FA881A083A0918501A031DC
:1002EE0019F4E0E0E0938501E0918701EF5FE09380
:1002FE00870102C0E881ECB978940C94E105BA93B9
:10030E00AA931A930A93EA81FB810E947907A0E2CD
:10031E00B1EA87E090E00E94BB070E94E406DF018D
:10032E00CB010E943F05DF01CB01E0E0F0E060E889
:10033E007FE30E94FD070E9417070E94AD068F0102
:10034E00D801E0E0F1E00E949107E0BDE02FE9B9AD
:10035E00EE81FF81309719F4EAB1EAB90DC0E130B0
:10036E00A0E0FA0711F4549A07C0E230A0E0FA07B1
:10037E0019F4EAB1E069EAB9EC81FD81309719F41C
:10038E00EAB1EAB90DC0E130A0E0FA0711F4539AD0
:10039E0007C0E230A0E0FA0719F4EAB1E864EAB95E
:1003AE00198108812896089564970E940A0810E31F
:1003BE0040E050E0E6E7F0E00E94FC050E940A06ED
:1003CE000E940A060E940F06DE011696A40FB51FA4
:1003DE00E8E2EC93133289F0E3E1F0E0E417F5077D
:1003EE0061F020DF1E2FFA013196DE011696EA0F1C
:1003FE00FB1F10834F5F5F4FEDCFDE011696A40FEC
:10040E00B51FE9E2EC9320E030E0421753072CF0E1
:10041E000E9413062F5F3F4FF8CFEEE9F0E00E94E7
:10042E00FC050E9411086A960895EC970E940A082E
:10043E0000E010E0A0916001B0916101139709F006
:10044E005EC0EDEAF0E00E94FC050E941A060E94D2
:10045E000A060E940F060430E0E01E070CF049C0A9
:10046E000F5F1F4FDFDE5E2F503310F05A3308F050
:10047E0007C0A52F1BDFA0E319DF0E941F0636C0A1
:10048E00543491F40E9483050E942206EFEBF0E0B3
:10049E000E942706E0E0EA93A0E00E947605DE01C6
:1004AE0016960E94A40522C0583479F4AEE6FEDEFC
:1004BE00AFE6FCDEA4E7FADEA8E6F8DEA9E6F6DE95
:1004CE00AEE6F4DEA7E6F2DE11C00E942206EBECE9
:1004DE00F0E00E94270620E030E02B30E0E03E07FF
:1004EE002CF40E9413062F5F3F4FF7CF0E941F067A
:1004FE00B2CFE7EDF0E00E94FC050E9403060E94D9
:10050E001108EF9623960895EF97289782E0A5E4B9
:10051E00B0E0E4E7F0E00E9418080E940A0840E00C
:10052E0050E0FE01BF96FA93EA93E6EEF0E00E94E9
:10053E002706FE017E96FA93EA93E2E0F1E00E942E
:10054E0027060E942206E3E1F1E00E942706A09111
:10055E006001B0916101149709F074C00E941A06EF
:10056E000E941A060E940F06EBE2F1E00E94FC05C3
:10057E0059DE1E2F183281F020E030E02B31E0E002
:10058E003E072CF40E942E062F5F3F4FF7CF0E949E
:10059E001F0648DE1E2FEECF45DE1E2F193269F0E4
:1005AE00113310F0193330F0E0E0DE01A55BBF4FE0
:1005BE00ED93EC934F5F5F4FEFCF4530E0E05E077A
:1005CE0064F420E030E02C31E0E03E072CF40E9491
:1005DE002E062F5F3F4FF7CF29C0E5E0F0E0E4177E
:1005EE00F50741F4DE01A55BBF4F0D90BC91A02D28
:1005FE00119709F010C020E030E02131E0E03E0715
:10060E004CF4DE015E96A20FB31FAC914FDE2F5F4E
:10061E003F4FF3CF0BC020E030E02831E0E03E0743
:10062E002CF40E9413062F5F3F4FF7CF0E941F0638
:10063E00E1E0F0E0DE01A55BBF4FED93FC9340E0FF
:10064E0050E096CF0E941108EF962E960895E0E0A6
:10065E00EABBEBBBE7BBE8BBEFEFE4BBE0E0E5BB1F
:10066E00E2E0E1BBE0E0E2BBEBB9E8EDEAB9E6E8D7
:10067E00E0BDE0E0E0BDE3E3E9B9A0E10E94B5052D
:10068E0078940895BA93AA93AA8110DEA881B981AD
:10069E000E9435060C94B305BA93AA931A930A9343
:1006AE00AA81BB8112960E94E107309729F1AA8197
:1006BE00BB8114960E94E1078F01309761F00230E2
:1006CE00E0E01E0780F0F80131978F01AA81BB810F
:1006DE001496ED93FC93AA81BB8112960E94350667
:1006EE003197AC81A083AA81BB810E94E107FF23D1
:1006FE0012F00E94350606C0AA81BB81EFEFFFEF14
:10070E00ED93FC931981088125960895BA93AA93C7
:10071E0026970E940A0810E0AC85BD85E0E0F0E067
:10072E00ED93FC93EA89FB893196EA8BFB8B31972B
:10073E00E4912E2FE03009F415C1E12FE03039F4A9
:10074E00253211F411E002C00E943B060AC1E130CD
:10075E00A9F4253219F40E943B0602C112E040E0D2
:10076E0000E02D3211F401E0FCC02B3211F44BE20B
:10077E00F8C0203211F440E2F4C002C0E23039F485
:10078E0050E013E0203311F40068EBC003C0E330F7
:10079E0009F0E7C0203310F02A3308F007C0AAE0B2
:1007AE005A9F502DE22FE0535E0FDBC0E22FE3364F
:1007BE0049F40E944206E889F989A481AA930E940D
:1007CE004806CEC0E33741F40E9442060E944E0610
:1007DE000E94E3051E2F0AC0E03761F40E94420614
:1007EE000E944E060E94EF051E2F086002600F77D2
:1007FE0030E034C0E43611F0E93611F4046002C082
:10080E00E53731F4E4E5F0E0EE83FF8315E00CC04C
:10081E00E83511F4086003C0E83709F0A1C0EEE531
:10082E00F0E0EE83FF8314E002FF14C00E94420644
:10083E000E945806AB85AA233AF4EA85FB850E94EE
:10084E006D07EA87FB874DE2403011F01F5F01C054
:10085E000B7F04C00E9442060E94580600FD11C084
:10086E00151778F407FF08C002FF04C00B7F242F72
:10087E00115001C020E301C020E20E943B065150FE
:10088E00EFCF312F01FF17C03030A1F003FF06C0AC
:10089E00EE81FF812591EE83FF8305C0AE81BF817E
:1008AE002D91AE83BF830E943B06503009F051500C
:1008BE003150EACF4BC020E3EE81FF810E94E50765
:1008CE00E887F987EE81FF813296EE83FF83E88514
:1008DE00F985AA85BB85AE17BF0750F02F5FA88597
:1008EE00B985EA85FB85EA1BFB0BEA87FB87EFCF11
:1008FE002A3328F003FF02C0295F01C0295D04FDE1
:10090E001AC0213320F4A885B985119709F409C0BE
:10091E00531710F000FF01C013C020E207FF0BC0F9
:10092E0020E3006102FF07C00B7F4A930E94480636
:10093E00503009F051500E943B06503009F0515092
:10094E003150A885B985129708F0B5CF00FF08C0C1
:10095E00503031F05150E0E2EA930E944806F8CF51
:10096E0010E0E0CEAC85BD850E94E1070E94110823
:10097E0064960895FF92F82E26970E940C080E9406
:10098E006006309719F4EFEFFFEF1DC0DE011696EB
:10099E000E9469078D010E946006EE83FF83E0E0EE
:1009AE00E887E987DE011A960E946706E3E5F3E021
:1009BE00FA93EA93DE011A96A9DE9F01AE81BF81FA
:1009CE00E0E0EC93F9010E9413082A96FF90089537
:1009DE00FF92F82E26971A930A93DE0114960E9420
:1009EE0069078D01E0E0EC83ED83EE83EF83DE019A
:1009FE0018960E946706E9E4F3E0FA93EA93DE01A3
:100A0E00189684DE198108812896FF9008950E9419
:100A1E00F8077B816A81F981E88177FB770F67FDA3
:100A2E007160972F9E5781F078F0983190F4AA2735
:100A3E00BB27882708948795B795A7959A95D1F7E0
:100A4E00EA23FB23682305C0E8947727EE27FF27C8
:100A5E0066276F77769508F4606877F9A991B99152
:100A6E0089919991EA17FB076807790797FB089513
:100A7E000E94F8070E94EE070E940E050E94F307DF
:100A8E0019F40E94E90709C0E6F70E94E907A0E001
:100A9E00B0E080E89FE30E94170724960895AA937A
:100AAE00E5B3EF70AE2FE881E07FEA2BE5BB8DE07A
:100ABE008A95F1F7AA9A8DE08A95F1F7AA988DE0BA
:100ACE008A95F1F777C0AA93A881E9DFE881E295CC
:100ADE00E883A881E4DF85E88A95F1F76BC0AA93D5
:100AEE00E881F0E0E857FE4FE081A981AE0FEBDF21
:100AFE005980488022960895A2E00E947006ACE0CC
:100B0E00E2DFA1E00E947006E0E04E2E5E2E089518
:100B1E00AA93A881AA3011F0571448F0E0E0EA93A6
:100B2E004394A42DDCDFA881AA3009F443C053946A
:100B3E00A89AA881C8DFA8983DC0BA93AA931A9321
:100B4E00A981BA81ED91A983BA831E2FE03019F0E5
:100B5E00A12FDEDFF5CF188123960895AA93E4B373
:100B6E00E06FE4BBA29AA09AA19AAA98A898A99815
:100B7E007880E881E058E0938A01E881E054E093C0
:100B8E008B01A4E1B0E00E947E060E9476060E94D0
:100B9E0076060E947606A0E282DF88EC90E001974E
:100BAE00F1F7A8E290DFA4E08EDFA5E88CDFA6E0E7
:100BBE008ADFA2DF21960895BA93AA93A991B991DB
:100BCE00EE27FF276D91662311F03196FBCF089526
:100BDE00BA93AA93AA27BB27E991F9910590002011
:100BEE0011F01196FBCFFD010895FA93EA9380E080
:100BFE000E94EF0422960895E4E0F0E0E093600195
:100C0E00F09361010895E1E0F0E0FA93EA9308951C
:100C1E00A0E8B5E20C948601DE011696A20FB31F72
:100C2E00AC910C945D01E2E0F0E0FA93EA93089542
:100C3E00EBE9F0E0DACFFE013696FA93EA930895E7
:100C4E00FA93EA9380E00E94C10424960895DE018F
:100C5E009F96A20FB31FAC910C945D01ED91FD9187
:100C6E003196FE93EE9308952A93AD85BE85EF855A
:100C7E00F88909950895E889F9893497E88BF98BF5
:100C8E000895AD85BE85EF85F88909950895A889E3
:100C9E00B98914960E94E107EE83FF83AE81BF816E
:100CAE000895A889B98914960E94E107EA87FB87FF
:100CBE000895DE011C960E9469070E94E1070895BF
:100CCE000E9469070E94E107FA93EA931A930A9326
:100CDE0008950E946A05A3E0B0E00C947E06A0E39E
:100CEE000E94560588EC90E00197F1F70895109652
:100CFE0039F080ED97E00197F1F7A8951197C9F7B4
:100D0E00089550E8572711F45F93CAC05F3F31F042
:100D1E00660F000C57956795752F08955F93002009
:100D2E000AF0CAC0C3C050E8192E1522880F991FA9
:100D3E009527550F879550E8072E0522660F771FCA
:100D4E007527550F67950895689401C0E8945F93D1
:100D5E00F2DF703818F07F3F08F4A2C056E1571B3F
:100D6E00AAF4519558300EF4593030F0EFEFFFEFF2
:100D7E006FEF7FE777F91AC077275523B9F0EE0F9B
:100D8E00FF1F661F771F5A95D1F710C0772758306F
:100D9E0028F0EF2FF62F672F5850F9CF552331F04B
:100DAE0076956795F795E7955A95D1F700200AF451
:100DBE0091D05F910895689401C0E8943097604097
:100DCE007040B1F0002426F0772312F4009482D004
:100DDE00172E7EE1112032F07A95EE0FFF1F661F5F
:100DEE00111CF9CFEF2FF62F612D5F938ADF5F91E4
:100DFE0008954F93AF01FD01DA01AB01BC01CA01A9
:100E0E00402D012C142E4F910895EA0FFB1F681FE1
:100E1E000895E095F0956095EF5FFF4F6F4F089541
:100E2E005F9381DF903849F150E81526703821F133
:100E3E00572F591B2BF112F4DCDFFACF583118F073
:100E4E00AA27BB278827583028F0AB2FB82F882722
:100E5E005850F9CF552329F08695B795A7955A95F1
:100E6E00D9F7502D512572F0D0DF38F46795F795EC
:100E7E00E795739513F420C0BCDF43DF5F910895AF
:100E8E00D8F7FBCFEA1BFB0B680B51F010F4009464
:100E9E00C0DF662392F3EE0FFF1F661F7A95CBF726
:100EAE00EE27FF27662777275F910895EFEFFFEF75
:100EBE006FE77FEF5F910895EFEFFFEF6FE77FE74B
:100ECE005F9108950024AF0DB01D0895F195E19541
:100EDE00F0400895F09560957095E195FF4F6F4F36
:100EEE007F4F08956F2F660F660B762F089500249F
:100EFE00112490E1AA0FBB1F001C111C0E1A1F0A11
:100F0E0018F40E0E1F1E01C0A1609A9599F7FD01EF
:100F1E00D00108952ED0EBDF0EF4D8DF08953F9365
:100F2E004F935F93002411244427552730E2AA0FD4
:100F3E00BB1F881F991F001C111C441F551F0E1A22
:100F4E001F0A460B570B28F40E0E1F1E461F571F67
:100F5E0001C0A1603A9559F7FD01BC01D001CA014B
:100F6E005F914F913F91089512D0D9DF0EF4B2DF09
:100F7E000895E894F7FF02C0A9DF6894B7FF06C092
:100F8E00A095B095119600F8039400FA0895E89490
:100F9E0077FF02C09FDF689497FF0BC00024A095D7
:100FAE00B095809590951196801D901D00F8039434
:100FBE0000FA0895ED91FC91119708950590F49122
:100FCE00E02D0895E881F9816A817B810895A881D9
:100FDE00B9818A819B810895E883F9836A837B8333
:100FEE0008959A938A93BA93AA930895182E862FEA
:100FFE00612D192E972F712D1B2EBF2FF12D1A2E0D
:10100E00AE2FE12D08955A934A933A932A931A9349
:10101E000A9308955D814C813B812A811981088153
:10102E000895AC0FBD1F05900D928A95E1F70895B6
:00000001FF
